:020000040800F2
:1000000000040020D9020008DB020008DB0200081F
:10001000DB020008DB020008DB020008DB0200084C
:10002000DB020008DB020008DB020008714B00085D
:10003000DB020008DB020008DB020008DB0200082C
:10004000DB020008DB020008DB020008DB0200081C
:10005000DB020008DB020008F1610008C161000852
:1000600091610008616100083161000811600008B9
:10007000E15F0008B15F0008815F0008515F000880
:10008000215F0008F15E0008DB020008DB020008C7
:10009000DB020008DB020008DB020008C160000888
:1000A000DB02000831580008DB0200085158000844
:1000B00011580008DB020008DB020008DB02000820
:1000C000DB020008DB020008DB020008DB0200089C
:1000D000DB020008F1570008D1570008DB020008D6
:1000E00041600008DB020008DB020008DB020008B8
:1000F000DB020008DB020008DB020008C15E00082A
:10010000DB020008DB02000861580008DB0200087F
:10011000DB020008DB020008DB020008DB0200084B
:10012000915E0008615E0008315E0008015E000813
:10013000D15D0008DB020008DB020008DB020008DA
:10014000DB020008DB020008DB020008115900088E
:10015000A15D0008715D0008415D0008B15700080D
:10016000DB020008DB020008DB020008DB020008FB
:10017000DB020008DB020008DB020008DB020008EB
:10018000DB020008DB020008DB020008DB020008DB
:10019000DB020008DB020008DB020008DB020008CB
:1001A000DB020008DB020008DB020008DB020008BB
:1001B000DB020008DB020008DB020008DB020008AB
:1001C000DB020008DB020008DB020008DB0200089B
:1001D000DB020008DB020008DB020008DB0200088B
:1002000072B6274880F30888264880F30988264874
:100210004EF60851CEF200010860022080F31488E7
:10022000BFF36F8F06F044F805F0CAF94FF0553070
:100230001E491B4A91423CBF41F8040BFAE71C4996
:10024000184A91423CBF41F8040BFAE719491A4A8F
:100250001A4B9A423EBF51F8040B42F8040BF8E7E0
:1002600000201749174A91423CBF41F8040BFAE7B6
:1002700005F0D6FF06F014F8134C144DAC4203DA27
:1002800054F8041B8847F9E704F0EAFC104C114DC0
:10029000AC4203DA54F8041B8847F9E705F0F8BFCD
:1002A00000040020000800200000000800000020DA
:1002B00000040020DC74000800080020A80C0020C6
:1002C000A80C00209CE10020E0010008E0010008EB
:1002D000E0010008E001000892E700F000F8FEE706
:1002E0002DE9F04FC1F814D043699D46BDE8F08F69
:1002F000002383F311882846A047002004F048FC1F
:10030000FEE704F04DFC00DFFEE70000844641EA12
:10031000000313F003036DD1403A41D351F8043B7D
:1003200040F8043B51F8043B40F8043B51F8043BCF
:1003300040F8043B51F8043B40F8043B51F8043BBF
:1003400040F8043B51F8043B40F8043B51F8043BAF
:1003500040F8043B51F8043B40F8043B51F8043B9F
:1003600040F8043B51F8043B40F8043B51F8043B8F
:1003700040F8043B51F8043B40F8043B51F8043B7F
:1003800040F8043B51F8043B40F8043B51F8043B6F
:1003900040F8043B51F8043B40F8043B403ABDD2DE
:1003A000303211D351F8043B40F8043B51F8043B80
:1003B00040F8043B51F8043B40F8043B51F8043B3F
:1003C00040F8043B103AEDD20C3205D351F8043B0F
:1003D00040F8043B043AF9D2043208D0D2071CBFDB
:1003E00011F8013B00F8013B01D30B880380604604
:1003F000704700BF082A13D38B078DD010F003037A
:100400008AD0C3F10403D21ADB071CBF11F8013BE9
:1004100000F8013B80D331F8023B20F8023B7BE738
:10042000043AD9D3013A11F8013B00F8013BF9D263
:100430000B7803704B7843708B78837060467047FD
:10044000A2EB0300704700BF02780B78012A28BF97
:100450009A42F5D16DE9044540EA0104CDE902670D
:100460006FF0000C4FEA447212B380EA010414F0FA
:10047000070F6AD100F0070420F0070004F003051D
:1004800021F007014FEAC505F0E8042314F0040F3A
:10049000F1E804670CFA05F462EA040266EA04066D
:1004A0000AD063EA0403624667EA0407664603E08B
:1004B000F0E80423F1E8046782FA4CF582EA0604C6
:1004C000A4FA8CF46CBB83FA4CF583EA0705A5FA11
:1004D0008CF595B950E9022351E9026782FA4CF58F
:1004E00082EA0604A4FA8CF483FA4CF583EA070541
:1004F000A5FA8CF52543DBD09CB92DBAB5FA85F465
:1005000024F0070427FA04F1DDE9026723FA04F373
:1005100003F0FF0001F0FF01FDE80445A0EB01003E
:10052000704724BAB4FA84F424F0070426FA04F1DC
:10053000DDE9026722FA04F202F0FF0001F0FF0198
:10054000FDE80445A0EB0100704714F0030F3CD117
:1005500010F0030428D150F8082B51F8083B82FA18
:100560004CF582EA0305A5FA8CF55DB950F8042C28
:1005700051F8043C82FA4CF582EA0305A5FA8CF5A1
:10058000002DE8D02DBAB5FA85F424F0070423FA3B
:1005900004F122FA04F202F0FF0001F0FF01FDE88D
:1005A0000445A0EB010070474FEAC40420F00300AB
:1005B00050F8082B21F0030151F8083B0CFA04F421
:1005C00062EA040263EA0403C9E710F003041AD0E4
:1005D000A1EB040120F00300E40750F8042B06D03F
:1005E0000FD28B785FFAA2F4E41A06D12BB1CB7844
:1005F0005FFAB2F4E41A00D11BB920465DF8104B43
:10060000704701F1040150F8042BCC0721F00301DD
:1006100051F8043B48D824D222F07F4482FA4CF5AA
:1006200094EA1325A5FA8CF50AD165B951F8043B73
:1006300084EA0204B4EB036F0ED150F8042BEBE70D
:100640004FEA132355E035F07F454DD10878FDE89A
:100650000445C0F1000070474FEA126203F0FF0347
:1006600047E002EA1C4482FA4CF594EA1345A5FAE5
:100670008CF50AD165B951F8043B84EA0204B4EB65
:10068000034F0CD150F8042BEBE74FEA134330E053
:1006900015EA1C4528D10B884FEA124229E04FEA9F
:1006A000124203EA1C4324E002F0FF0482FA4CF5F4
:1006B00094EA1365A5FA8CF50AD165B951F8043BA3
:1006C00084EA0204B4EB032F09D150F8042BEBE7C2
:1006D0004FEA13630DE015F0FF0F05D10B684FEAE9
:1006E000122223F07F4304E04FF00000FDE80445B0
:1006F000704712BA1BBA82FA4CF482EA0304A4FAD5
:100700008CF5B5FA85F402FA04F203FA04F34FEA21
:100710001260FDE80445A0EB136070470000000084
:1007200000000000000000000000000000000000C9
:1007300000000000000000000000000000000000B9
:1007400090F800F06DE9024520F007016FF0000C11
:1007500010F0070491F820F040F049804FF00004B9
:100760006FF00700D1E9002391F840F000F1080094
:1007700082FA4CF2A4FA8CF283FA4CF3A2FA8CF3CC
:100780004BBBD1E9022382FA4CF200F10800A4FA33
:100790008CF283FA4CF3A2FA8CF3E3B9D1E9042387
:1007A00082FA4CF200F10800A4FA8CF283FA4CF3BE
:1007B000A2FA8CF37BB9D1E9062301F1200182FA78
:1007C0004CF200F10800A4FA8CF283FA4CF3A2FA7E
:1007D0008CF3002BC6D0002A04BF04301A4612BA8C
:1007E000B2FA82F2FDE8024500EBD2007047D1E98F
:1007F000002304F00305C4F100004FEAC50514F01E
:10080000040F91F840F00CFA05F562EA05021CBFEE
:1008100063EA050362464FF00004A9E781F0004156
:1008200002E000BF83F0004330B54FEA41044FEAD5
:10083000430594EA050F08BF90EA020F1FBF54EA70
:10084000000C55EA020C7FEA645C7FEA655C00F00C
:10085000E2804FEA5454D4EB5555B8BF6D420CDDDD
:100860002C4480EA020281EA030382EA000083EA60
:10087000010180EA020281EA0303362D88BF30BD00
:1008800011F0004F4FEA01314FF4801C4CEA113156
:1008900002D0404261EB410113F0004F4FEA0333B5
:1008A0004CEA133302D0524263EB430394EA050F40
:1008B00000F0A780A4F10104D5F1200E0DDB02FAAF
:1008C0000EFC22FA05F2801841F1000103FA0EF243
:1008D000801843FA05F359410EE0A5F120050EF109
:1008E000200E012A03FA0EFC28BF4CF0020C43FA3A
:1008F00005F3C01851EBE37101F0004507D54FF047
:10090000000EDCF1000C7EEB00006EEB0101B1F596
:10091000801F1BD3B1F5001F0CD349085FEA3000DC
:100920004FEA3C0C04F101044FEA445212F5800FE7
:1009300080F09A80BCF1004F08BF5FEA500C50F184
:10094000000041EB045141EA050130BD5FEA4C0C67
:10095000404141EB0101013C28BFB1F5801FE9D2C4
:1009600091F0000F04BF01460020B1FA81F308BFE7
:100970002033A3F10B03B3F120020CDA0C3208DDB3
:1009800002F1140CC2F10C0201FA0CF021FA02F18E
:100990000CE002F11402D8BFC2F1200C01FA02F1FE
:1009A00020FA0CFCDCBF41EA0C019040E41AA2BF23
:1009B00001EB0451294330BD6FEA04041F3C1CDAEB
:1009C0000C340EDC04F11404C4F1200220FA04F00B
:1009D00001FA02F340EA030021FA04F345EA0301B5
:1009E00030BDC4F10C04C4F1200220FA02F001FA77
:1009F00004F340EA0300294630BD21FA04F02946F9
:100A000030BD94F0000F83F4801306BF81F4801191
:100A10000134013D4EE77FEA645C18BF7FEA655C04
:100A200029D094EA050F08BF90EA020F05D054EAD6
:100A3000000C04BF1946104630BD91EA030F1EBFDB
:100A40000021002030BD5FEA545C05D140004941DF
:100A500028BF41F0004130BD14F580043CBF01F5D2
:100A6000801130BD01F0004545F0FE4141F47001B8
:100A70004FF0000030BD7FEA645C1ABF1946104693
:100A80007FEA655C1CBF0B46024650EA013406BF94
:100A900052EA033591EA030F41F4002130BD00BF53
:100AA00090F0000F04BF0021704730B54FF4806410
:100AB00004F132044FF000054FF0000150E700BF91
:100AC00090F0000F04BF0021704730B54FF48064F0
:100AD00004F1320410F0004548BF40424FF00001DD
:100AE0003EE700BF42004FEAE2014FEA31014FEA20
:100AF00002701FBF12F07F4393F07F4F81F060516F
:100B0000704732F07F4208BF704793F07F4F04BFB9
:100B100041F40021704730B54FF4607401F0004596
:100B200021F000411CE700BF50EA010208BF7047F6
:100B300030B54FF000050AE050EA010208BF7047E7
:100B400030B511F0004502D5404261EB41014FF450
:100B5000806404F132045FEA915C3FF4D8AE4FF058
:100B600003025FEADC0C18BF03325FEADC0C18BF3B
:100B7000033202EBDC02C2F1200300FA03FC20FA8C
:100B800002F001FA03FE40EA0E0021FA02F11444D9
:100B9000BDE600BF70B54FF0FF0C4CF4E06C1CEAF2
:100BA00011541DBF1CEA135594EA0C0F95EA0C0F63
:100BB00000F0DEF82C4481EA030621EA4C5123EAD6
:100BC0004C5350EA013518BF52EA033541F4801105
:100BD00043F4801338D0A0FB02CE4FF00005E1FBB8
:100BE00002E506F00042E0FB03E54FF00006E1FB02
:100BF00003569CF0000F18BF4EF0010EA4F1FF0445
:100C0000B6F5007F64F5407404D25FEA4E0E6D4184
:100C100046EB060642EAC62141EA55514FEAC52095
:100C200040EA5E504FEACE2EB4F1FD0C88BFBCF511
:100C3000E06F1ED8BEF1004F08BF5FEA500E50F1C2
:100C4000000041EB045170BD06F0004646EA010188
:100C500040EA020081EA0301B4EB5C04C2BFD4EBBA
:100C60000C0541EA045170BD41F480114FF0000EB3
:100C7000013C00F3AB8014F1360FDEBF002001F021
:100C8000004170BDC4F10004203C35DA0C341BDC9B
:100C900004F11404C4F1200500FA05F320FA04F06D
:100CA00001FA05F240EA020001F0004221F00041A1
:100CB00010EBD37021FA04F642EB06015EEA430E14
:100CC00008BF20EAD37070BDC4F10C04C4F1200544
:100CD00000FA04F320FA05F001FA04F240EA0200F7
:100CE00001F0004110EBD37041F100015EEA430EC8
:100CF00008BF20EAD37070BDC4F1200500FA05F2E8
:100D00004EEA020E20FA04F301FA05F243EA020366
:100D100021FA04F001F0004121FA04F220EA020075
:100D200000EBD3705EEA430E08BF20EAD37070BDBB
:100D300094F0000F0FD101F00046400041EB01019B
:100D400011F4801F08BF013CF7D041EA060195F07D
:100D5000000F18BF704703F00046520043EB030337
:100D600013F4801F08BF013DF7D043EA0603704724
:100D700094EA0C0F0CEA135518BF95EA0C0F0CD02F
:100D800050EA410618BF52EA4306D1D181EA030175
:100D900001F000414FF0000070BD50EA410606BF6F
:100DA0001046194652EA430619D094EA0C0F02D1B4
:100DB00050EA013613D195EA0C0F05D152EA0336F9
:100DC0001CBF104619460AD181EA030101F0004117
:100DD00041F0FE4141F470014FF0000070BD41F060
:100DE000FE4141F4780170BD70B54FF0FF0C4CF43A
:100DF000E06C1CEA11541DBF1CEA135594EA0C0F59
:100E000095EA0C0F00F0A7F8A4EB050481EA030EA5
:100E100052EA03354FEA013100F088804FEA03338C
:100E20004FF0805545EA131343EA12634FEA02225A
:100E300045EA111545EA10654FEA00260EF000411B
:100E40009D4208BF964244F1FD0404F5407402D26D
:100E50005B084FEA3202B61A65EB03055B084FEAFE
:100E600032024FF480104FF4002CB6EB020E75EBFB
:100E7000030E22BFB61A754640EA0C005B084FEA23
:100E80003202B6EB020E75EB030E22BFB61A7546A0
:100E900040EA5C005B084FEA3202B6EB020E75EBEB
:100EA000030E22BFB61A754640EA9C005B084FEA63
:100EB0003202B6EB020E75EB030E22BFB61A754670
:100EC00040EADC0055EA060E18D04FEA051545EA5F
:100ED00016754FEA06164FEAC30343EA52734FEA08
:100EE000C2025FEA1C1CC0D111F4801F0BD141EA81
:100EF00000014FF000004FF0004CB6E711F4801FE6
:100F000004BF01430020B4F1FD0C88BFBCF5E06FC5
:100F10003FF6AFAEB5EB030C04BFB6EB020C5FEAD5
:100F2000500C50F1000041EB045170BD0EF0004E2A
:100F30004EEA113114EB5C04C2BFD4EB0C0541EA5C
:100F4000045170BD41F480114FF0000E013C90E659
:100F500045EA060E8DE60CEA135594EA0C0F08BF1D
:100F600095EA0C0F3FF43BAF94EA0C0F0AD150EA1C
:100F700001347FF434AF95EA0C0F7FF425AF1046AF
:100F800019462CE795EA0C0F06D152EA03353FF4D7
:100F9000FDAE1046194622E750EA410618BF52EA54
:100FA00043067FF4C5AE50EA41047FF40DAF52EA28
:100FB00043057FF4EBAE12E74A0011D212F500129E
:100FC00011D20DD56FF47873B3EB62520ED44FEAA1
:100FD000C12343F0004343EA505323FA02F0704721
:100FE0004FF00000704750EA013002D14FF0FF305F
:100FF00070474FF00000704753B94AB9002908BF45
:1010000000281CBF4FF0FF314FF0FF3000F06CB9EB
:10101000ADF1080C6DE904CE00F006F8DDF804E04F
:10102000DDE9022304B070472DE9F047089E0D4624
:1010300004468E46002B40F082808A42174646D9ED
:10104000B2FA82F24AB1C2F1200105FA02F320FAA3
:1010500001F1974041EA030E94404FEA1748230CF0
:10106000BEFBF8FCB9B208FB1CEE43EA0E430CFBD6
:1010700001F098420AD9FB180CF1FF3580F0168177
:10108000984240F21381ACF1020C3B441B1AA4B20B
:10109000B3FBF8F008FB103344EA034400FB01F112
:1010A000A14209D93C1900F1FF3380F00181A1422E
:1010B00040F2FE8002383C44641A40EA0C400021B1
:1010C0001EB1D4400023C6E90043BDE8F08702B951
:1010D000FFDEB2FA82F2002A4FD1CB1B4FEA174E45
:1010E0001FFA87F80121B3FBFEFC250C0EFB1C3315
:1010F00045EA034508FB0CF3AB4207D97D190CF117
:10110000FF3002D2AB4200F2E7808446ED1AA3B270
:10111000B5FBFEF00EFB105543EA054408FB00F852
:10112000A04507D93C1900F1FF3302D2A04500F2D7
:10113000D7801846A4EB080440EA0C40C0E78B4275
:1011400008D9002E00F0AF800021C6E9000508464E
:10115000BDE8F087B3FA83F100294BD1AB4202D34B
:10116000824200F2B780841A65EB030301209E4699
:10117000002EAAD0C6E9004EA7E7C2F1200C01FA62
:1011800002F3974020FA0CF04FEA174E21FA0CFCBC
:101190001843BCFBFEF1050C0EFB11CC1FFA87F8BF
:1011A00045EA0C4501FB08F3AB4204FA02F409D905
:1011B0007D1901F1FF3C80F08B80AB4240F28880CA
:1011C00002393D44EB1A85B2B3FBFEF00EFB10333F
:1011D00045EA034500FB08F3AB4207D97D1900F14E
:1011E000FF3C71D2AB426FD902383D44EB1A40EA62
:1011F000014178E7C1F1200C8B4022FA0CF71F4324
:1012000020FA0CF405FA01F34FEA174E25FA0CF513
:101210001C43230CB5FBFEF91FFA87F80EFB19558A
:1012200043EA054509FB08FAAA4502FA01F200FA69
:1012300001F308D97D1909F1FF3047D2AA4545D9F4
:10124000A9F102093D44A5EB0A05A4B2B5FBFEF0E5
:101250000EFB105544EA054400FB08F8A04507D9E9
:101260003C1900F1FF352DD2A0452BD902383C4462
:1012700040EA0940A4EB0804A0FB02894C45C6469D
:101280004D4619D316D05EB1B3EB0E0264EB0504E4
:1012900004FA0CFCCA404CEA0202CC40C6E9002425
:1012A0000021BDE8F087314630460EE7AC46EDE65A
:1012B000184601E74345E6D2B8EB020E69EB070595
:1012C0000138E0E72846D3E760468FE78146BAE772
:1012D000614677E708464BE7ACF1020C3D4415E761
:1012E00002383C4426E700BF704700BF0000000002
:1012F0000E49CA68D36813F0FF000CD14968106129
:10130000087D48B9886868B143F00603096909B1E6
:1013100043F00103D360704788680028F4D143F09C
:101320000403F3E743F00203F0E700BFC00C002022
:10133000F0B4304D0346012428689C40044218BF95
:10134000002001D0F0BC704705EBC30720432A4EB4
:10135000286014F0FF0F03EB43007960BA6006EBDE
:1013600080004FEA430509D0244A116B41F4001173
:101370001163116D41F400111165126D14F47F4F6A
:101380002CD1EA1856F822100A6822F01F020A60CF
:101390000A6812F00102FBD12B4406EB83033D25C2
:1013A000DC7A5E7A5F6863099B00B54003F16043B5
:1013B00004F160463D6003F56143012506F5614691
:1013C00004F01F040A6005FA04F4C02221254D61CF
:1013D00086F80023C3F880411C60B3E7074A116B0D
:1013E00041F480011163116D41F480011165126DAA
:1013F000C7E700BF74200020547000080038024086
:10140000104A936823F00F0393600F4B01289A68EA
:1014100010D142F001029A60DA6822F00102DA602B
:10142000094B1A6842F001021A605A6822F0010260
:101430005A60704722F001029A60DA6842F00102B5
:10144000DA60EDE700380140003C01400000000098
:10145000224A02EB80032DE9F043D968D2F8549078
:1014600080464869D0E90037BB4228D908F1010419
:10147000B1F810E009EB043409EB481CDE1BDCF882
:101480001829764528BF764693B2B6EB830F21D84C
:101490008568042E2B6823600AD9711F21F003018F
:1014A000043129442B4653F8042F22609942FAD183
:1014B000036837443544BB42C0E90175DED8D9F82A
:1014C0003438012000FA08F823EA0803C9F8343850
:1014D000BDE8F0830020BDE8F08300BFC81D0020F8
:1014E00030B4202383F311880B4CD4E900354942F2
:1014F000281A0840821A9A4207D3954205D362609F
:10150000002383F3118830BC70470020002383F34D
:10151000118830BC704700BF402000200000000050
:1015200042690949094B0A4810B414684A6982F4AF
:1015300000424A611B680268C3F1010323449342DD
:1015400010BC38BF036070470008024048230020E9
:101550002C08002000000000000000000000000037
:10156000036905491B68054A01330B60536983F41D
:1015700080435361704700BF4823002000080240A9
:1015800008B5202383F31188084B1B7853B1012041
:10159000FFF736FF064A074B13600023536083F3BF
:1015A000118808BD0220FFF72BFFF3E7A91E0020DA
:1015B000281E0020011A00080000000000000000A2
:1015C00090F84420034602F01F00012803D193F84D
:1015D00045100B291BD002F06002202A01D0002008
:1015E000704793F84520212A09D81F2AF7D90A4ABB
:1015F0009A6307210022C3E90F1201207047222AB3
:10160000EDD10022C3E90E221A64012070470022A6
:10161000C3E90E221A64704724080020000000006D
:10162000022906D0032906D00129074818BF002047
:10163000704706487047032A03D8054800EBC200EC
:1016400070470020704700BFFC720008A8720008B5
:10165000847300080000000000000000000000008B
:10166000202383F311880D4B5B6813F4006302D1D0
:1016700083F311887047EFF30983203B4FF08072AA
:10168000DA6183F30988064A1168526989689268A9
:1016900091428CBF034A044A9A61704700ED00E012
:1016A000AC1E002003030008060300080000000031
:1016B000084A10B4D2E900344942201A084098423E
:1016C00004D3844202D310BC50607047002010BC89
:1016D000704700BF40200020000000000000000014
:1016E0000E4A0F4B52681B6F816830B4D31AD0E991
:1016F0000445C2685B1A01324168C260E41802689E
:10170000836045F100058B4288BF43609342C0E986
:10171000044538BF036030BC704700BF001000E0D4
:10172000AC1E0020000000000000000000000000CF
:10173000014B5B6883607047001000E00000000010
:10174000836841681A4AF0B4D0E90475022643F868
:101750002C1C0124002143E91B750568C06803F8AF
:10176000271C03F8286C03F8264C43F83C2C14691A
:1017700043F8400C43F80C0C43F8305CA3F16C00C8
:101780000C4D43F8340C43E90511A3F1480043F82C
:101790004C5CA3F11C01A3F1200543F8384CE06038
:1017A000106143E9085143F8181CF0BC704700BFB2
:1017B000AC1E0020F1020008000000000000000044
:1017C000202383F3118890F82030072B0DD8DFE811
:1017D00003F0270C0C2308040C08426A93680133B9
:1017E0009360D0E9003213605A6010B400224FF0C9
:1017F000FF3481680C4B446280F820201B689A6893
:101800008A42FBD25A680021C0E900321060586059
:1018100081F3118810BC7047436A00221A60E4E724
:10182000002383F311887047AC1E002000000000E5
:1018300000228168064B80F820201B689A688A4243
:10184000FBD25A68C0E9003210605860704700BF90
:10185000AC1E00200000000000000000000000009E
:1018600038B50446006884420AD06FF00105036869
:1018700023605C604562FFF7DBFF2068A042F6D181
:1018800038BD00BF000000000000000000000000A4
:10189000F8B50468A04221D007460D46002604E0B2
:1018A0000B2A1CD02468A74218D0E3682B43E360BE
:1018B00015B123691D42F5D0D4E90103416B90F8BD
:1018C00020200B430A2A4363EAD1426A1342E9D03B
:1018D0004662FFF7ADFF2468A742E6D1F8BD426A31
:1018E00032EA0303DED1F3E700000000000000004D
:1018F0001A4B9A69824230B40FD0D0E900210A60B5
:101900000268183300249A425160C46003D0816891
:1019100093680B44936030BC70471846116840F8D8
:10192000181F002481424860D46013D095688A68EB
:101930000B4C5B6A15448D60626AD11A8D42EAD9FC
:101940009A1A2A44012A98BF8D1C054A2B445363D6
:1019500030BC7047024BDC60DDE700BFAC1E0020EE
:10196000000C00400000000000000000000000002B
:10197000F0B41E4D1E4E2F46022957F8184F38BF9F
:101980000221BC42C0E90323736A22D06A6A9B1A0F
:10199000C91816D2A3688B4203D917E02468C91A64
:1019A000A3688B42FAD36368C0E9004318606060A3
:1019B0008160A3684FF0FF32591AA1602A62F0BC1F
:1019C0007047A2682468891AA368EAE70A44726328
:1019D000E7E76B62CF1800220223C5E90600C0E9E1
:1019E0000044816077633261F360E8E7AC1E002059
:1019F000000C00400000000000000000000000009B
:101A000038B52348234903780A78B3FA83F35B098E
:101A1000013203700A70202383F311881E4B9968EA
:101A2000DA6841EA0200C00715D51C481C4C8068E2
:101A3000186820F001001860586820F00100586014
:101A400021F00101002022F001020125996060606F
:101A5000DA605D6120601348C3680BB1FFF748FF8F
:101A60001048114A00234FF4FA71FFF781FF0F4825
:101A7000C3680BB1FFF73CFF0D4A0C4800234FF43D
:101A8000FA61FFF775FF002383F3118838BD00BFAB
:101A9000A91E0020A81E0020003C01400038014083
:101AA000281E0020DCDE002081150008F0DE00206A
:101AB000D14000080000000000000000000000000D
:101AC000034A516853685B1A9842FBD8704700BFBD
:101AD000001000E000000000000000000000000016
:101AE000FEE700BF00000000000000000000000052
:101AF0002DE9F0418568EF682E686A6840F20F139F
:101B00001E4204461DD043681A696FF480732B602F
:101B1000BAB116F0080F0CBF00211021B3B2F007C4
:101B200048BF41F00401980748BF41F00801580739
:101B300048BF41F02001DB0548BF41F0400120468D
:101B40009047700601D579060CD4FA0608D5F3063D
:101B500006D563685B691BB12046BDE8F0411847B4
:101B6000BDE8F08163686FF040015A68296007EAB8
:101B70000103EB60002AE8D020469047E5E700BF6C
:101B800011F00C0F38B51CD181690A68136823F075
:101B90001F03044613601368DB07FCD44D7A4868C2
:101BA00062683D23AB4002210360617013682BB172
:101BB000204698476378022B00D038BD002363701D
:101BC00038BD72B6014B024A9A62FEE7AC1E002095
:101BD000806A000800000000000000000000000013
:101BE00011F00C0F24D170B5837804463BB94368DB
:101BF000DB68E3B1818BBDE8704089B21847416969
:101C00000A68136823F01F0313601368DB07FCD412
:101C1000487A4D6861683D23834002202B60A070A4
:101C20008B686BB120469847A378022B05D070BD16
:101C300072B60D4B0D4A9A62FEE7636961681A68D5
:101C4000E0680023A370CB68002B0CBF4FF48073B7
:101C50004FF48873034301211C34D4605160136036
:101C600013680B43136070BDAC1E0020806A00082F
:101C700041690A68136823F01F0330B413601368C6
:101C8000DB07FCD44D7A8469496822683D23AB4068
:101C90000B60136823F01F031360136813F0010334
:101CA000FBD1657A826860683D21A940016030BC43
:101CB000D360136153617047000000000000000012
:101CC00038B5C36841681A69DD681540EAB2D24385
:101CD0001A610B7D04467BB96B072BD50378042B67
:101CE00025D0A9070FD4ED0705D5636820461B69E9
:101CF00098470323237038BDAA070AD50378042B1D
:101D000004D06B07EFD504232370ECE78B68D3B1C5
:101D100098476B07E7D52378042BF4D16168CB682B
:101D2000002BF0D02046984704232370DBE78B6814
:101D300033B19847A907D6D52378042BE3D1EDE733
:101D4000A807ECD4CFE76A07E9D4CCE7000000008D
:101D500000EB810330B4DC6862691368D360F3B9C7
:101D6000426D02EB41134FF40020C3F810092368C1
:101D700003F00303012B2AD008B202EB4010012329
:101D8000D0F8004944F00444C0F80049D2F83408BF
:101D900003FA01F1014330BCC2F83418704719B995
:101DA000402B84BF40231360258A426D681E18446F
:101DB000B0FBF5F002EB411543EAC04343F000539A
:101DC000C5F81039236803F00303012BD4D1D2F8EE
:101DD000083813F4807F02EB411308B2D3F80049AE
:101DE00014BF44F0805444F00054C3F80049C4E7E1
:101DF000204AF8B5566D06EB40130446D3F808594F
:101E0000C3F80859E80703D5D6F81038D90708D41D
:101E10002B0605D5D6F834280123A340134215D14B
:101E2000F8BD02EB8403D86843691F68D9688F4204
:101E300011D3138987680121A14023EA010313818B
:101E4000002FE5D010462146B847E1E72046BDE81F
:101E5000F840FFF7FDBAC91B0027C3E9001720238C
:101E600083F3118810462146FFF772FF87F311882C
:101E7000CEE700BFC81D00200000000000000000E9
:101E800000EB810330B4DD68AB691C68DC6019B914
:101E9000402C84BF40241C606B8A406D2D685A1E04
:101EA0002244B2FBF3F202FB03F3033323F00303F8
:101EB00043EAC24300EB411405F0030243F0C04380
:101EC000012AC4F8103B0AD009B200EB411130BC22
:101ED000D1F8003B43F00443C1F8003B7047D0F811
:101EE000083800EB411213F4807FD2F8003B14BF96
:101EF00043F0805343F0005309B2C2F8003BE4E7DB
:101F00002DE9F041244F7E6D06EB40130446D3F8D3
:101F1000085BC3F8085B280703D5D6F814381907FF
:101F200031D4EA072DD5D6F81438DB0729D507EBCD
:101F30008403D9685CB98A69488A5568B5FBF0F3AF
:101F400000FB13531BB91068D36898420DD37B89EB
:101F5000CD680122A24023EA02037B818DB1214694
:101F60002B460D48BDE8F04118471B1AC2E9003462
:101F7000202383F3118808482146FFF781FF84F36B
:101F80001188BDE8F08107EB84032146DB68384601
:101F90005B689847C5E700BFC81D0020000000002F
:101FA0002DE9F04F83B002F0030C01926646C2F3B4
:101FB0004115D70900244FF00F094FF001084FF0E9
:101FC000030E12E0D0F800B003EA0B033343072CF2
:101FD00003603DD8036A23EA0A0A4AEA020202625F
:101FE000490832D0AD00B6000134CB07F8D54368BC
:101FF00008FA04F223EA02034360826863000EFADF
:1020000003F322EA03028260C26804F0070A22EAAC
:1020100003022A434FEA8A0ABCF1020FC2606FEA48
:10202000030307FA0AF209FA0AFACBD1072C16D8E9
:10203000D0F820B02BEA0A0A4AEA020202620268D9
:102040001340334349080360CCD103B0BDE8F08F9F
:10205000436A23EA0A0A4AEA02024262C0E7D0F867
:1020600024B02BEA0A0A4AEA02024262E7E700BF0A
:10207000C27A53099B0003F1604330B403F5614316
:10208000012102F1604402F01F0201FA02F204F59C
:102090006144C3F88020C3F88021002384F8003312
:1020A000114D827A2B68914023EA010313F0FF0F50
:1020B0002B6009D10D4A116B21F400111163116DD0
:1020C00021F400111165126D13F47F4F09D1074BF4
:1020D0001A6B22F480021A631A6D22F480021A65C8
:1020E0001B6D30BC704700BF7420002000380240D8
:1020F00038B590F834300446152B16D8DFE803F0D5
:10210000161515151515161515161616151515157A
:10211000151515150B2CC3689B695B682BB9036CEF
:1021200003B19847002384F8343038BD436D4168CB
:10213000D3F800290D6842F40012C3F80029D3F83F
:10214000002B42F40012C3F8002B0DB10621A84762
:10215000062384F8343038BD0B2380F83430202334
:1021600083F31188C36802895B69002542F001028C
:1021700002812946C3E900559D60FFF7E9FD85F31B
:10218000118838BD000000000000000000000000C1
:1021900038B590F834300446152B21D8DFE803F029
:1021A0000B20202020200B2020213148202020201F
:1021B000202020200B0B436D4168D3F800290D68C7
:1021C00042F40012C3F80029D3F8002B42F40012A5
:1021D000C3F8002B0DB10621A847062384F834303C
:1021E00038BD90F84B2090F84A30C16B43EA022387
:1021F000994206D2C3681B8AB1FBF3F503FB1515A0
:10220000EDB1142384F83430202383F31188E3687C
:1022100062899B69002542F0010262812046C3E980
:1022200000559D602946FFF72BFE85F3118838BDC8
:10223000036C03B19847002384F8343038BD202361
:1022400083F31188C36802895B6942F0010202814D
:102250002946C3E900559D60FFF77AFD85F3118893
:102260000A2384F8343038BD00000000000000006C
:10227000F0B400EB81050789D5F80CC00125DCF826
:1022800014608D403D4300270581C6E90037B260E8
:10229000F0BCFFF75DBD00BF0000000000000000C3
:1022A000816D8368F0B40C68C465002203F00113EB
:1022B0008F68446D8360C0E9042282614FF0FF356E
:1022C00000E0324604EB42110B46D1F80009002829
:1022D00002F1010605DAD1F8000940F08040C1F8AA
:1022E0000009D1F8000B002805DAD1F8000B40F006
:1022F0008040C1F8000BBA42C3F80859C3F8085B24
:10230000DFD14FF00113C4F81C38F0BC704700BF98
:10231000F8B50446202585F3118803784160012B28
:1023200058D085680023A37063702046FFF7A0FC97
:10233000A368704A93423CD002F58062934238D041
:1023400063686D4AB3F91C009969B2FBF1F2002889
:10235000998B38DBDF68DE8B188CAA6063692A688A
:10236000D4F80CC06A681B68002F41F4045242F094
:102370000C0246F040064FF0000740F0C1000CBFD1
:102380004FF480714FF488712F6041EA0C012E6187
:102390006861EA6004F11C000122D8605A6019608B
:1023A0001A68022142F001021A60217087F3118835
:1023B000F8BD6368514AB3F91C009969B2FBF1F2A8
:1023C0000028998BC6DA22F0070002F0070242EAE1
:1023D0004002BFE74A4B98426ED04A4B984243D0E6
:1023E000494B984218D08B8B03F4A053B3F5805F10
:1023F00007D1D4E9032342F4205243F42053C4E923
:102400000323D4E90523A5681068196800222B1D51
:1024100083608B60A28385E702463C490A20FEF771
:1024200087FF3B49606122460F20FEF781FF394B51
:10243000A061596C384A41F020015964596E41F04D
:1024400020015966C02080215B6E82F84703C2F8E4
:1024500088119160D4E9032342F0206243F02063A5
:10246000C4E903236168BEE7024628490520FEF758
:102470005FFF2749606122460620FEF759FF254B82
:10248000A061196C244A41F400311964196E41F4B9
:1024900000311966C02040211B6E82F82603C2F865
:1024A00084115160D4E9032342F0006243F00063D9
:1024B000C4E90323616896E7024614490D20FEF73C
:1024C00037FF1349606122460F20FEF731FF114BA1
:1024D000A061596C104A41F010015964596E41F0E5
:1024E00010015966C0215B6E82F82513C2F8845131
:1024F0005560D7E70010014080DE800200BD010575
:10250000681D0020881D0020A81D0020E11B000878
:10251000811B00080038024000E100E000000000DC
:10252000704700BF00000000000000000000000035
:1025300000207047000000000000000000000000C4
:10254000F8B541F28C03C1580A681378042B02D104
:10255000037A022B01D00120F8BD0C7955890123A3
:1025600003FA04F42542F6D1D0E90746B44214D068
:10257000497902EB81030120DB6888409E690543AD
:10258000231D4FF48067002455811046C6E900746E
:10259000B360FFF775FC2046F8BD80690028E7D0DE
:1025A000D9E700BF000000000000000000000000AC
:1025B000406BFFF7C5BF00BF000000000000000037
:1025C000093138B550F821409CB1202383F311889C
:1025D00041F28C03E2581368527903EB8203DB6803
:1025E0009B695D6835B92046FFF7AAFF002383F396
:1025F000118838BD04216018FFF74AF9E369616A60
:102600001D60A06AA26903448B4202F10102E068E6
:10261000E361A26124BF236BE36104F10C028242F7
:10262000E1D00368E36000215A604162FFF700F9DE
:10263000D9E700BF0000000000000000000000001B
:102640000346D0E90420824203D050F8043B0B60DB
:102650007047DB68002BF8D00020704700000000B6
:1026600030B5446B41F28C0583B062591368197818
:10267000042902D1217A022901D003B030BD117999
:102680001A8901238B401342F7D101A904F14400B8
:10269000FFF7D6FF02466059019B01790068FFF7FA
:1026A000E7FDEAE700000000000000000000000075
:1026B00010B5202382B083F3118841F28C031E4CA5
:1026C000E25813681978042902D1217A022904D02A
:1026D000002383F3118802B010BD11791A890123F8
:1026E0008B401342F4D1D4E915329342F0D1226DDC
:1026F000002AEDD0E26E002AEAD0043AD21AE7D0DE
:102700001A60D4E9171003448B42226D636524BF1D
:10271000A36E6365013A002301A908482265E366B8
:10272000FFF78EFF41F28C030246E058019B0179CE
:102730000068FFF79DFDCBE7D80C00201C0D0020A2
:102740002DE9F04100EB810382B09C69FCB10546A4
:102750000E46202383F3118800EB8108201D0821F9
:10276000FFF796F8D8F80C305B691B6893B904F151
:102770004407384601A9FFF763FF024648B3019BAF
:1027800031462846FFF774FD002383F3118802B019
:10279000BDE8F081D4E91720A36D216D0344934275
:1027A000606CA36504F1440724BFA36EA3650131E7
:1027B00087422165DDD00368636400225F60426266
:1027C000FFF736F8384601A9FFF73AFF024600281E
:1027D000D5D1D8F80C305A691268002AD4D01B8A97
:1027E000013B1340D0D1314605F144022846FFF7A2
:1027F0003FFDC9E7000000000000000000000000ED
:1028000070B434490B78012B43D0D1E90223002066
:1028100018605863986358624868D0E9064546686E
:10282000B2FBF6F224F0FF040026013A1E61DC60E0
:102830009A62A5B94FF0FF32DA62027D9AB954224A
:1028400040F201249C619A600278FAB113221A6264
:1028500003F13802343370BCC1E904237047DD62F0
:10286000027D002AEBD064224FF481749C619A604F
:10287000027842B131221A6203F13402383370BC5B
:10288000C1E90423704713221A62F5E731221A6264
:10289000DEE71148114A036C8A6043F001030364C8
:1028A000056ECB680E4C45F001050566056E056AA0
:1028B00045F001050562056A25F001050562006A1B
:1028C00070254FF0805084F81C53C4F880012060BC
:1028D000A2E700BFC00C00200038024000BD010587
:1028E00000E100E000000000000000000000000027
:1028F000144B596930B48D6884680022AC4242623E
:102900000CD880F820201B689A689442FBD95A683A
:1029100030BCC0E9003210605860704781F8202058
:102920001A4612689468A542FBD354684C6001258E
:102930000A602160516080F8205030BC5861FDF77A
:10294000CFBC00BFAC1E0020000000000000000053
:1029500070B50346202282F311881A4AC3F8DC10AE
:1029600003F1DC01C3F814110121106983F822116D
:10297000154D164EC3F8FC5080210224A3F82041C7
:10298000C3F8186103F58074C3F80811C3F83C114B
:10299000002503F5967103F59476C3E94320C3E956
:1029A0004D55C3F81C31C3F8E050C460C3E94A6117
:1029B000C3F8301120461461FFF79AFF85F31188A0
:1029C000204670BDAC1E0020F10200088C6A000891
:1029D000084B59691A6810B481F820001068186013
:1029E0000124436082F8204010BC5A611046FDF774
:1029F00077BC00BFAC1E00200000000000000000FB
:102A000070B52E4B044680685D6930B3AA68836850
:102A1000934207D290F820308260062B35D0072BE6
:102A200020D09BB1234603E09968AA68914202D363
:102A30001B689C42F8D15A680620C5E9003215602F
:102A40005D606C62BDE87040FFF7C2BFD0E9003244
:102A500013605A60FEF7ECFEE4E7AB6BC4E9025387
:102A6000AC6370BDD0E90031466A0B6059603346F3
:102A700002E099688A4202D81B689E42F9D15A68DE
:102A8000C0E9003210605860CCE7D0E90031466AF6
:102A90000B605960334602E099688A4202D81B688D
:102AA0009E42F9D15A68C0E9003210605860B0689F
:102AB000AA6883689342ADD3B4E700BFAC1E002080
:102AC00038B5104B5C69A36A606204F12805AB421B
:102AD00007D01A68A2621846FEF7AAFEA36AAB42A4
:102AE000F7D194F822303BB994F821309B0703D1F9
:102AF000D4E90332D3601A61BDE838400F20FFF7F4
:102B000067BF00BFAC1E00200000000000000000F6
:102B100030B54B1C87B012D00C4D0D4A6B69044682
:102B200001A8FEF725FF2046FFF752FF049B13B1D3
:102B300001A8FEF7DDFE6B69586A07B030BD034D92
:102B4000FFF746FF6B69586A07B030BDAC1E002026
:102B5000C117000800000000000000000000000095
:102B600008B50146202383F311880820FFF7D0FF22
:102B7000002383F3118808BD00000000000000005E
:102B800070B5124E04460D460CE0237ABBB9CDB1A8
:102B900073696268C3E9004213606360FFF7B8FFBE
:102BA00000280BDBE36829460420002BEDD0636985
:102BB0001A6803441A44C4E90A32002070BD6FF059
:102BC000010070BD4FF0FF3070BD00BFAC1E002093
:102BD00070B52023044683F31188856AE5B115F8A2
:102BE000016BE26AA562954211D3D4E906106369CC
:102BF000E26803448B42636124BF636A6361013A04
:102C0000236BE2600022A2620BB1204698470023AA
:102C100083F31188304670BDFFF7B2FF064608B94E
:102C2000A56ADCE785F31188F4E700BF0000000027
:102C30000C30FFF7CDBF00BF000000000000000017
:102C40000C304FF0FF31FFF7C3BF00BF00000000A2
:102C500070B5124E04460D460CE0237ABBB9CDB1D7
:102C600073696268C3E9004213606360FFF750FF55
:102C700000280BDBE36829460420002BEDD02369F4
:102C8000E1691A180B44C4E90A23002070BD6FF0F3
:102C9000010070BD4FF0FF3070BD00BFAC1E0020C2
:102CA00070B520230D46044683F31188866AFEB171
:102CB0003570D4E90A3201339342A36214D3E26936
:102CC0002369A169043A1A60E069E26803448B420F
:102CD000236124BF636A2361013A236BE26000220F
:102CE000A2620BB120469847002080F3118870BD86
:102CF0001146FFF7ADFF08B9A66AD9E786F3118838
:102D000070BD00BF000000000000000000000000D7
:102D10004430FFF7C5BF00BF000000000000000006
:102D200044304FF0FF32FFF7BBBF00BF0000000090
:102D30002DE9F843536900EB81070C46FA600FFA5E
:102D400081F823B10021196059609960D9609369B5
:102D500023B100221A605A609A60DA60FB68456D00
:102D60001E68D3F818C006F00306721E022A98BF28
:102D7000B60405EB44124FF0000198BF06F18056EF
:102D8000C2F8101B8CBF454E06F500466101BCF130
:102D9000000F4BD0B3F812C004F1580252014CEAB4
:102DA000060C45F802C004F1100ED5F81CC801222B
:102DB00002FA0EF242EA0C02C5F81C286A18596998
:102DC0004FF0000CC2F810C9002944D0998B1A8A20
:102DD00001294FEA9203C26D88BF4B4304F13F01C2
:102DE00003EB020C05EB810142EA0343A20142F02E
:102DF0002002C0F85CC04B602A612B699A06FCD4A3
:102E00001220FEF75DFEFB681B8A04F1480243EACC
:102E1000845352011E43AE500121D5F81C3801FAEB
:102E200004F41C43C5F81C48BDE8F88305EB4812C0
:102E300004F11009D2F800EB2EF4004EC2F800EBBA
:102E4000D5F81C284FF0010C0CFA09FC22EA0C0200
:102E5000C5F81C28B2E704F13F0205EB8202A3018A
:102E60000F49516043F020032B612B699B06FCD472
:102E700005EB48181220FEF723FED8F8003923F49A
:102E80000043C8F80039D5F81C38012101FA04F4D0
:102E900023EA0404C5F81C48BDE8F883008000104C
:102EA000000400020000000000000000000000001C
:102EB00030B583B005290FD8DFE801F0100E0310FC
:102EC0001029202383F311880378042B2FD0032BA0
:102ED00059D0002383F3118803B030BD202383F33E
:102EE00011882A4C237D1BB194F84C30002BF0D173
:102EF00002212748FEF7CCFC012526482575FEF760
:102F0000AFFC254884F84C50FEF7AAFCE1E72023EB
:102F100083F311881E480121FEF7BAFC1B4A0023E7
:102F2000137582F84C3083F3118803B030BD174C11
:102F30001A4A01900121FFF7FBFE02210198184A6D
:102F4000FFF7F6FE0025236B236204F10C00E3611A
:102F5000C4E90D55A561FEF783FCD4E9192304F1FA
:102F60004400C4E915332265C4E91B552575FEF7F5
:102F700077FC201D012184F84C50FEF789FC204687
:102F8000FFF7DEFAA5E7FFF78BF9A2E7D80C0020E0
:102F9000DC0C0020E40C00201C0D00208C710008CB
:102FA000B0710008000000000000000000000000F8
:102FB0002DE9F041D0E90246B4420746884653D095
:102FC000D0E900C0234600211CF8035001352B44F2
:102FD0009842D8BF1B1AB34201F10101F4D1012A72
:102FE0003D693CD0A94253DBB44254D04B1E9D42B4
:102FF00054D0D7E900EC002001E09D4217D01EF824
:10300000043001331C44A44500F10100D8BFA4EBF7
:103010000C04C343B4420B44EFD11EF806405CB924
:10302000012A35D101353D612046BDE8F0812646B3
:103030001EF80640002CF3D0013540223D610021EE
:10304000404603F0C9F97B68A2199A4210DA396840
:103050000136314440462246FDF758F9E4E7002D99
:1030600004DD023D3D61BDE70021B8E70024DBE758
:103070009B1B39685D1E013631442A464046FDF7E8
:1030800045F9396808EB0500621BFDF73FF9CBE70E
:103090004FF0FF34C8E7D7F800E0BEE7D7F800E00C
:1030A0002646BAE700000000000000000000000013
:1030B00070B590F83430044613B1002380F83430F2
:1030C00004EB81016268CB681B6A19685B68A364C2
:1030D000616493686BB32046984750B3E36B94F8F0
:1030E000440094F84B1094F84A2042EA01229A4294
:1030F0003CBFE2631346020600F1DF80002B00F0C4
:103100008F80152384F83430202383F31188E368FB
:1031100062899B69D4E90E6142F001020025628157
:10312000204683E862002946FEF7AAFE85F311884F
:1031300070BD94F8440010F060061CD194F845204E
:1031400000F07F0343EA022340F20232934200F090
:10315000138144D8B3F5807F00F0258122D9B3F5DF
:10316000817F00F02F81B3F5407F04D194F8463081
:10317000012B00F0D280626DD2F80039616843F40F
:103180000013C2F80039D2F8003B0D6843F4001375
:10319000C2F8003B15B106212046A847062384F853
:1031A000343070BD012B60D0022B50D194F94810FF
:1031B00094F84820002902F00F01B4BF483158317B
:1031C000626D490151580D04D6D589024CBF9C4A05
:1031D0009C4AA26302210022C4E90F1281E7B3F5E1
:1031E000006F00F0C28047D9B3F5106F39D1237852
:1031F000042B00F09C8094F846304BB1626884F850
:103200004F3004212170136813B1022120469847E2
:103210000023C4E90E3394F844002364030665D404
:103220000B2384F83430202383F31188E368228948
:103230005B69002542F0010222812046C3E9005566
:103240009D602946FEF784FD85F3118870BD002B33
:1032500091D1022204F14C012364C4E90E121346F9
:103260003FE740F60242934285D1774BA3630022A9
:103270000223C4E90F3234E7B3F5A06F6BD0A3F596
:10328000C063012B3FF677AF94F84900616894F86A
:1032900048304D6894F8462094F8471043EA0023DC
:1032A0002046A84700283FF466AFD0E9003294F8E2
:1032B00044002664C4E90E2313E7BBB1092384F854
:1032C0003430202383F31188E36822895B69D4E9D1
:1032D0000E6142F0010200252281204683E862004F
:1032E0002946FEF735FD85F3118870BD142384F857
:1032F0003430202383F31188E36862899B690025B9
:1033000042F0010262812046C3E900559D602946D2
:10331000FEF7B6FD85F3118870BDB4F84C30A66396
:1033200043F00203C4E90F66A4F84C3076E720238B
:1033300083F311882046FEF7B3FF86F3118803213B
:10334000636884F84F6021701B68002B3FF453AF13
:10335000204698474FE7B4F84430B3F5A06F48D003
:103360000023C4E90E33236458E704F14F0201231C
:10337000C4E90E232664B4E694F84630002B7FF4AB
:10338000FAAE94F8483013F00F02E9D013F0800F32
:10339000636D03EB421344D1D3F8002B42F40012C7
:1033A000C3F8002BDCE794F84630012B7FF4E3AE42
:1033B000B4F84C30A66323F00203C4E90F66A4F806
:1033C0004C302BE794F84630002B7FF4D4AE94F8C1
:1033D000483013F00F02C3D013F0800F636D03EB7E
:1033E000421325D1D3F8002B22F40012C3F8002B8E
:1033F000B6E794F84610626D84F84E10D2F80038A3
:10340000656823F4FE632D6843EA0113C2F80038AF
:1034100025B120460121A84794F8440003232370D6
:103420009EE7D3F8002942F40012C3F8002997E779
:10343000D3F8002922F40012C3F8002990E700BF56
:10344000E071000814710008CC730008000000004F
:103450002DE9F04F054683B00C46924699464FF051
:10346000200888F31188AB6A00263746002B41D02C
:10347000E96AAAEB060BCA1A934528BF9346BBF12B
:10348000400F40D92146184604F1400E0C684A68A6
:103490008B68D1F80CC0C0F80CC0103171450460C5
:1034A0004260836000F11000F0D1AB6A40330C46FB
:1034B0004036AB62EA6A9A4213D8EA692B69A86976
:1034C000043A1A60E969EA68AF620B4483422B61EF
:1034D00024BF6B6A2B612B6B013AEA600BB1284663
:1034E000984787F3118856451AD288F31188AB6A3A
:1034F000002BBDD1494628460193FFF7A9FB019B4C
:1035000060B9AB6AB4E7184621465A46FCF7FEFE9E
:10351000AB6A5B445E445C44AB62CBE783F31188E7
:10352000304603B0BDE8F08F00000000000000004E
:103530004430FFF78DBF00BF000000000000000016
:1035400044304FF0FF33FFF783BF00BF000000009F
:103550002DE9F04F83B005460F46934601934FF097
:10356000200989F31188AC6A0026B046002C3FD0B0
:10357000EB6AABEB06021B1B9A4228BF1A46402A95
:10358000924621463BD904F1400E3B460C68486800
:103590008A68D1F80CC0C3F80CC0103171451C60AA
:1035A00058609A6003F11003F0D1AB6A40334037A2
:1035B0004036AB62EA6A9A4211D8D5E906216B69B6
:1035C000E868C5F828800B4493426B6124BF6B6A9E
:1035D0006B612B6B0138E8600BB12846984788F384
:1035E00011885E4516D289F31188AC6A002CBFD1D0
:1035F00001992846FFF7C4FA50B9AC6AB8E73846D3
:10360000FCF784FEAB6A534456445744AB62D1E79F
:1036100084F31188304603B0BDE8F08F000000004D
:103620000C30FFF795BF00BF000000000000000055
:103630000C304FF0FF33FFF78BBF00BF00000000DE
:1036400070B50D46B8B1044628601249204602F014
:1036500097FF215C222904EB000612D00D49304669
:1036600002F072FF98B1421C00232A600370337885
:1036700023B1304670BD0C68002CE6D100263046E0
:1036800070BD0136304602F0F7FE0028EBD128600D
:10369000EDE700BF946A0008000000000000000091
:1036A0000EB42DE9F04F86B00FAB53F8044B0293E4
:1036B000254615F8011B002900F03B820746994674
:1036C0004FF000080CE03B683846DB6808F1010861
:1036D0002C469847254615F8011B002900F0BE80AE
:1036E0002529F0D163782D2B04BFA51C01202B7850
:1036F00018BF00202B2B03BF6B784FF0010E7544D1
:103700004FF0000E302B05BF1E466B78202601358A
:103710002A2B40F0AC8059F8041B6B78AC1C2E2B84
:1037200000F03081002203F0DF054C2D00F0B28064
:10373000A3F1440CBCF1340F00F29881DFE81CF0D7
:103740005E0196019601960196015E019601960131
:103750009601960196019A0135009601960196010F
:103760009601940096019601350096019601960106
:1037700096019601960196019601960196014D01DA
:103780005E0196019601960196015E0196019601F1
:103790009601960196019A013500960196012D0138
:1037A000960194009601960135004FF0100E59F8DD
:1037B000045B0DF1170300E06346AA46B5FBFEF576
:1037C0000EFB15AB0BF13002392AC8BF0BF13702E3
:1037D000D2B2F24503F1FF3C03F8012CECD20DF11B
:1037E0000C0A0DF11705A5EB0C05D6460DF1170CCB
:1037F00001E013F8012B0EF8012B6345F9D1491BA9
:10380000013D21EAE17B20B90029CBF1000B00F357
:103810004581002D0FDB6B1C534401941C463A6814
:103820001AF8011BD26838469047A245F7D108F133
:103830000108019CA844BBF1000F3FF44BAF5D466B
:103840003B683146DB6838469847013DF8D125464C
:10385000D84415F8011B00297FF442AF404606B05A
:10386000BDE8F04F03B070474FF00A0E9FE76C1CA5
:10387000002BF3D00021A3F13002D2B2092A01EBD0
:1038800081053FF64CAF14F8013B02EB4501002BDC
:10389000F1D1E3E714F8013B002BDFD0A3F144059D
:1038A000342D00F2E3800FF2080C5CF825F000BF25
:1038B000FD3900086D3A00086D3A00086D3A0008BD
:1038C0006D3A0008FD3900086D3A00086D3A0008AD
:1038D0006D3A00086D3A00086D3A0008753A000824
:1038E000AB3700086D3A00086D3A00086D3A0008E1
:1038F0006D3A0008693800086D3A00086D3A000812
:10390000AB3700086D3A00086D3A00086D3A0008C0
:103910006D3A00086D3A00086D3A00086D3A0008EB
:103920006D3A00086D3A00086D3A0008DB3900086E
:10393000FD3900086D3A00086D3A00086D3A00083C
:103940006D3A0008FD3900086D3A00086D3A00082C
:103950006D3A00086D3A00086D3A0008753A0008A3
:10396000AB3700086D3A00086D3A00089B39000833
:103970006D3A0008693800086D3A00086D3A000891
:10398000AB3700082378002B3FF468AF2A2B74D1A3
:10399000637859F8042B0234C5E659F804ABBAF140
:1039A000000F00F0BC809AF80030002A40F0AA8096
:1039B000002B00F0AB8047F6FE72554601E0D34283
:1039C00005D415F8016FAAEB0503002EF7D1A5EB7E
:1039D0000A05491B2026013D13E759F8043B8DF8E1
:1039E0000C300139202621EAE17B18B90029CBF1FE
:1039F000000B72DC00250DF10C0A0CE759F804CB22
:103A0000BCF1000F5FDBBEF1000F00F08E802B23B6
:103A10008DF80C300DF10D050DF10C0A05F10B03BD
:103A200001931A46474BA3FB0CE3DB0803EB830B24
:103A30009E46ACEB4B033033E346DBB2BBF1090FE0
:103A400002F8013DF446EDDC9E46019BA3EB020C1F
:103A5000AC44734601E012F8013F05F8013B6545AF
:103A6000F9D1A5EB0A05491B013DCAE68DF80C30DA
:103A70000139B8E74FF0080E99E601340022A3F1AE
:103A80003005EDB2092D02EB820C3FF64CAE14F876
:103A9000013B05EB4C02002BF1D1DFE6CDF804B081
:103AA0009AF800102D2921D03B683146DB68384652
:103AB00098471BF1010BF7D1019B002DA8EB0308E0
:103AC000BFF6A9AE06E62D23CCF1000C8DF80C3024
:103AD0000DF10D050DF10C0AA0E79DF80C10CDF8C5
:103AE00004B02D290DF10C0A0546DDD1302EDBD1B5
:103AF0003A683846D26890470AF1010A08F101088D
:103B0000013DD1E713B1013A7FF557AF21EAE17BDF
:103B100018B90029CBF1000B0DDC20268BE6DFF86D
:103B200028A0002A3FF447AFEDE70DF10C0A5546F7
:103B300074E7884692E6CDF804B020264FF0FF35B2
:103B4000AEE700BFCDCCCCCC986A000800000000E6
:103B50002DE98048384B394A5B69394F394E3A4D27
:103B6000DFF8F0B09A618DB04FF40059CA463B7847
:103B7000A5F81AA041F2883040F6C414042B18BFEF
:103B800004462046FEF7ECFF2046A5F81890FEF705
:103B9000E7FF33684FF6FE729342E8D8DFF8B8C00B
:103BA0009846BCE80F006C460FC4BCE80F000FC479
:103BB0009CE80F0084E80F00B8F1000F26D0BBFB93
:103BC000F8F84046FCF76CFF19A3D3E900238146BF
:103BD0008A46FCF7DFFFFDF7EFF9952804461ED96A
:103BE00013A3D3E9002348465146FDF7FDF8FDF73E
:103BF000E3F9B0F5613F15D86B460CA953F8042BD7
:103C0000904201D2944210D89942F7D10F491048FE
:103C10004246FFF745FD4FF6FF733360A4E74FF0D0
:103C20000008F3E74FF0FF38F0E79046EEE700BFFB
:103C3000713D0AD7A370F13FAC1E0020A06A0008B6
:103C4000C81D00202C08002000080240A86A0008B7
:103C5000D80C002080969800506A000800000000F0
:103C60002DE980489D4B9E4A5B69DFF8B892DFF8EA
:103C7000B8A29C4D9A6187B09B4B9C4A1B68126806
:103C8000D34222D0D9F800200AEBC2035978E1B11F
:103C9000144641F26F700134844288BF00240AEB5D
:103CA000C4035B788B42F6D0002B00F0F580A41A99
:103CB000A11C0AD0621C00F0EF808D4B1E78012EF3
:103CC00000F0AF80022E44D026B14FF4FA70FEF718
:103CD00047FFD1E7D9F8003000940AEBC3038549C8
:103CE0005A78012A0CBF022301232846FFF7D8FC8B
:103CF000002CEAD0D9F80020DFF830827E4F14E0A3
:103D00005EF804ECACEB0E0CCDF800C0FFF7C8FC7D
:103D1000D9F8002041F26F73013201369A4288BF10
:103D20000022B442C9F80020CFD00AEBC20E734B78
:103D3000DEF804C01B681AF832200020BCEB030335
:103D40008EF8010039462846DAD14146FFF7A8FC33
:103D5000DEE7D9F80030694A6949106800940AEB37
:103D6000C3035A785B68012AA3EB0003019328463A
:103D70000CBF02230123FFF793FC002CA5D00026E3
:103D800006F110080027B34617E0D9F800301AF8FA
:103D9000332006F8102C5E1C0AEBC303764588BF5F
:103DA000002683F801C00BF1010BC9F80060FFF792
:103DB00077FCD84507F1010711D006AB5C455149A6
:103DC00003EB070641F26F7E4FF0000C2846DCD86B
:103DD0004D490BF1010BFFF763FCD845EDD14B4981
:103DE0002846FFF75DFC9FB102ABDFF844B11F44EA
:103DF0001E4616F8012BA2F120035F2B59462846D8
:103E000082BF2E2259462846FFF74AFCB742F0D11E
:103E10003F492846FFF744FCA045BFF456AF46464D
:103E2000AEE7D9F80030354A3549106800940AEBFE
:103E3000C3035A785B68012AA3EB00030193284669
:103E40000CBF02230123FFF72BFC04B32D4F0026E8
:103E5000D9F8002041F26F70531C834288BF0023C1
:103E60000AEBC2010020C9F8003033071AF832808B
:103E7000487004D1264928460EB1FFF711FC42468E
:103E8000013639462846FFF70BFCB442E0D1204901
:103E90002846FFF705FC18E7202383F311881D4A05
:103EA0000023526A83F311884FF47A7342F20F7041
:103EB0000021E3FB020142F210720023FDF79CF89F
:103EC000154B1A68154B1B88801A98427FF6FDAE79
:103ED000134B1C68D9F80030E41AEEE6AC1E002043
:103EE000B46A0008D80C0020D0DE0020D8DE002004
:103EF00000080020C06A0008D46A000840210020A1
:103F0000046B0008206B0008286B00082C6B00086D
:103F1000386F0008000C00404423002002080020F5
:103F200098E10020CCDE00204C230020EC6A000841
:103F3000306B0008000000000000000000000000DE
:103F4000F8B5DFF86CC0124B124E1348134F144DE6
:103F5000002421464BF68032CCF800401C6002F071
:103F60003BFA33680F491A463846FFF799FB2B682E
:103F70000D491A463846FFF793FB32682B680B4908
:103F8000134438461A46FFF78BFB34602C60F8BDAB
:103F9000CCDE0020D0DE00204C230020D80C0020F6
:103FA000D8DE0020346B0008506B00086C6B0008F2
:103FB00098E1002000000000000000000000000068
:103FC000FFF7BEBF0000000000000000000000007E
:103FD000F8B505460C46202383F311881F4A0023B9
:103FE000526A83F311884FF47A7342F20F70002102
:103FF000E3FB020142F210720023FCF7FDFF184FB1
:10400000032C0246386022D0164E1748DFF870C0E5
:10401000336816490068DCF800C001F8335060448A
:1040200001EBC30101284C704A6007D9013341F20A
:104030006F72934288BF00233360F8BD0C490D486E
:10404000FFF72EFB0C4A396833681160EEE7BDE8D4
:10405000F8400A490748FFF723BB00BF000C0040A7
:104060004423002098E10020D0DE00204C230020D3
:10407000B46B0008D80C002040210020886B000899
:10408000D8DE00200000000000000000000000005A
:10409000034A1368C8B2013302211360FFF798BFC7
:1040A000D8DE00200000000000000000000000003A
:1040B000034A1368C8B2013301211360FFF788BFB8
:1040C000D0DE002000000000000000000000000022
:1040D00010B5202080F31188084C2378022B04D0DF
:1040E0000023237083F3118810BD0321FFF770FFB5
:1040F0000023237083F3118810BD00BFA81E002089
:104100000029F8B5044640F39B8013460022186846
:10411000114602F055F9C5B2012D00F2BC80002D08
:1041200047D1202787F311887C4E3378022B00F08B
:10413000D780002501237560B570338085F3118821
:10414000202383F31188764E3378022B00F0AA8067
:10415000002501217560B570318085F311887148A3
:104160008222FDF71DFF202787F311886E4E6F4BCB
:104170007360FEF745FB0223337085F3118887F3E4
:104180001188F3685A6942F001025A61052103223D
:104190001D611960327085F3118887F31188FDF76E
:1041A000A7F885F3118862492046BDE8F840FFF77B
:1041B00077BA202383F311885B4B1A78022A51D0F7
:1041C000002201255A601D7082F31188202686F393
:1041D0001188D9680A60C868022720F0FF001F70A4
:1041E000C86082F311884F4840F282320421FDF703
:1041F000D7FE4C4840F282320821FDF7D1FE4948F3
:1042000040F282324FF40071FDF7CAFE454840F299
:1042100082324FF48061FDF7C3FE324629464148A1
:10422000FDF7BEFE43493D48FEF772F842493C485F
:10423000FEF76EF820464149BDE8F840FFF730BA76
:104240003F49FFF72DFA3F492046FFF729FA3E493B
:1042500020460122FFF724FA20463C49BDE8F840F9
:10426000FFF71EBADD683A483A4A00212960E96042
:1042700029614FF08055C0F88050C0F8805180F817
:104280001C13116C21F001011164116E21F0010168
:104290001166126E94E72A4620462F49BDE8F84081
:1042A000FFF7FEB93046FDF7E3FC7069FDF7E0FE6D
:1042B000B069FDF7DDFE264A264B75614021C2F844
:1042C0008410C2F8841182F826531A6CB56122F466
:1042D00000321A641A6E22F400321A661B6E37E737
:1042E0003046FDF7C5FC7069FDF7C2FEB069FDF709
:1042F000BFFE174A174BC2F88470C2F8847182F867
:1043000025535A6C756122F010025A645A6EB561D9
:1043100022F010025A665B6E0BE700BF681D00209A
:10432000881D002000000240C00C0020040800206E
:10433000C06C00083008002054080020A06C000861
:10434000FC6B00081C6C0008506C00086C6C0008CA
:1043500000E100E000380240806C0008000000002E
:10436000002910B504460ADD1346002218681146DC
:1043700002F026F803281DD8124B187010BD124900
:10438000FFF78EF90F4B11491A782046FFF788F98D
:104390000F492046FFF784F90E492046FFF780F9C0
:1043A0000D492046FFF77CF920460C49BDE8104036
:1043B000FFF776B902460A492046BDE81040FFF7EC
:1043C0006FB900BF00080020E06C0008F86C00081E
:1043D000106D0008286D0008786D0008B86D0008A1
:1043E000F46D000800000000000000000000000064
:1043F000002910B504461ADD13460022186811463C
:1044000001F0DEFF4FF6F573A0F10A01994207D8DB
:104410000E4B0F4918802046BDE81040FFF740B909
:1044200002460C492046BDE81040FFF739B90A4959
:10443000FFF736F9054B09491A882046FFF730F98E
:1044400020460749BDE81040FFF72AB902080020BE
:10445000906E0008706E0008106E0008346E000840
:10446000506E000800000000000000000000000086
:10447000002938B5044622DD13460022114618688B
:1044800001F09EFF164BA0F596719942024610D896
:104490001449154D15488A61AA61FDF739FF29466F
:1044A0001348FDF735FF20461249BDE83840FFF7B5
:1044B000F7B820461049BDE83840FFF7F1B8094B7E
:1044C0000E499D69FFF7ECF80D492A462046FFF793
:1044D000E7F820460B49BDE83840FFF7E1B800BFD8
:1044E000D4C001003008002054080020681D0020BE
:1044F000881D0020106F0008F06E0008A46E0008F0
:10450000C46E0008D86E0008000000000000000023
:1045100010B50B4984B00446FFF7C2F800221146DB
:1045200001A801F04DFF034601AA9BB205492046B0
:10453000FFF7B6F804490548FFF7B2F804B010BD1C
:10454000246F00083C6F0008686F0008D80C00203A
:10455000012903D0034A0449FFF7A2B812680349AE
:10456000FFF79EB8706F0008806F00088C6F00081E
:104570002DE9F04FBC4DD0F800A083686A69BB49B3
:10458000A7B0044601904068069000209161187021
:10459000D4E90223CDE90E00B54910905046CDE98B
:1045A0000C23FFF77DF8B3495046FFF779F86B69A4
:1045B00093F8213013F0040340F0958002930DF13D
:1045C0005809CDF800A0AC490098FFF769F8019BA5
:1045D00000251C682F46C846236801229B680DF100
:1045E000230120469847002846D09DF823101B2918
:1045F0002AD05FB15B293DD035B1412900F02A8135
:10460000422900F00A8100252F46E5E708291DD040
:104610007F291BD00D2900F06881092977D00E2948
:1046200000F03F81102900F057811F29D4D90DF1E6
:1046300097039845D0D223682046DB6898479DF8B9
:10464000233008F8013BC7E70127C5E7C845C3D0B9
:1046500023680821DB682046984723682021DB680F
:104660002046984723680821DB68204608F1FF3878
:104670009847B1E73D46AFE74FF47A70FEF770FA1E
:1046800009A94846FEF7DCFF09A90546002011AC40
:104690000026FEF7D5FF50B1042E31D044F8040BAC
:1046A00009A900200136FEF7CBFF0028F4D126AB84
:1046B00003EB860343F8540C75B170492846FBF7A9
:1046C000C3FE002840F0BD81002E00F072816B4ACD
:1046D0006B490098FEF7E4FF634B5B6993F8213068
:1046E0005B077FF570AF202383F3118800216548B5
:1046F000FDF7CEF80020FEF7E3F927B0BDE8F08F14
:1047000061490098FEF7CCFF00231593E4E70DF113
:104710009706B045BFF460AF584B88F8007093E837
:1047200003000DF1280B0A908DF82C1058464946CD
:1047300002F098F8019BD3F810A05A6803925845EC
:104740000AF1040308BF9B460493504B08BFCAF804
:1047500000004946184618BFD34602F083F84B4B79
:10476000039A98425B4608BF43F8040BC2B1D2F8E3
:1047700000B0BBF1000F13D0039405955C461546BD
:104780009B462046494602F06DF8844208BF4BF82C
:10479000044B55F8084F002CF3D1039C059D5B4654
:1047A000029A1A60DAF800B0BBF1000F3FF414AFC0
:1047B000DAF80430A8EB09010391002B00F07081B6
:1047C0009BF800C0BCF1000F00F0B881059407957C
:1047D0006446039DDDF810C0C64600215A5CA24223
:1047E00008BF624605D13BB152F8043F585CA04275
:1047F000F9D0002B40F0F080B64505D28D42DCBFE9
:104800000EF8014BDAF800B001311BF80140002C22
:1048100000F03281DAF80430E0E7012249460CA8C2
:10482000FEF7C6FB061E39D18DF8586010235222C0
:1048300017492046FEF734FF16492046FEF730FFA1
:10484000002515494A462046FEF72AFF09EB0608CF
:104850002F46C1E6002249460CA8FEF7A9FB061E1A
:104860007FF7D1AEE2E700BFAC1E0020946F0008D6
:10487000386F00089C6F0008B06F0008FC6F0008DC
:10488000806F0008D4DE0020E46F0008D86F0008B5
:10489000C46F0008D06F0008D46F0008FFF6B3AEF5
:1048A000C4E7012249460CA8FEF782FB061E78D118
:1048B0008DF8587010235222A3492046FEF7F0FECF
:1048C000A2492046FEF7ECFEA1494A46204609EBE4
:1048D0000608FEF7E5FE7FE63A4649460CA8FEF7D5
:1048E00067FB061E7FF778AEE4E720469949FEF79E
:1048F000D7FE0D9DA8EB09046B1E9C424DDA631E8A
:1049000009EB030219F8031020290AD1002C03DC5B
:1049100043E0002B41D0013B12F8011D20291C4629
:10492000F7D0002C39DD0F9E0C980E9BF21A991BC4
:1049300001329E42A5EB020201F1FF3109DBA242E6
:1049400009DCC25C134401339D42D8BF5B1B0E934C
:10495000ECE7A142F5DDAD1B013D0136A542304437
:1049600022DC2A464946FBF7D1FC0C98621B09EB76
:104970000501FBF7CBFC0F9B0C9AD4540F9A0D9BAF
:10498000013414449C420F94A8BFE41A0C9B029A71
:10499000A8BF0F941A5500231093029B88F800308B
:1049A0006EE6FFF619AE85E722464946FBF7AEFCF8
:1049B000E1E7009C68492046FEF772FE674A6849B5
:1049C0002046FEF76DFE069B002B40F09880614963
:1049D0000098FEF765FE7FE6059C079D09EB010B3D
:1049E000029B8BF8003000293FF4F6AD019ADAF80B
:1049F00004301668002B4CD056493046FEF750FE66
:104A0000DAF8002072B1DFF86481DDF810A001E06F
:104A10000AF1040A41463046FEF742FEDAF8002069
:104A2000002AF5D14B493046FEF73AFE4D49304653
:104A3000FEF736FE46494A463046FEF731FED84676
:104A4000CAE546482946FBF7FFFC002851D0069CE2
:104A5000002C68D0206820B965E054F8080F0028C1
:104A600061D02946FBF7F0FC0028F6D16368009876
:104A7000314611AA98472FE6A44609F801C0019AC9
:104A8000DAF80430079D059C166809EB010B002B32
:104A9000B2D142462E493046FEF702FED8469BE58B
:104AA0005846CDF814B0FBF74BFE09EB000BD84588
:104AB0008646014645D2039B059AA3EB080C434664
:104AC00003E0B3428CD0DAF8002003EB0C00125C58
:104AD00003F8012B5B45F4D1B34581D20EF1010EF1
:104AE00020238BF80030029B09F80E3009EB0E0BE7
:104AF0007CE70098314611AAFFF72AFDECE5069CF9
:104B00002268002A3FF463AF154D009E29463046C7
:104B1000FEF7C6FD54F8082F002AF7D10D4900987A
:104B2000FEF7BEFDD8E5009C09492A462046FEF75F
:104B3000B7FD0D492046FEF7B3FDCDE58DF858C011
:104B40004AE5C346CAE700BFC46F0008D06F00083B
:104B5000D46F0008386F000804700008D86F000890
:104B600014700008B06F000818700008E06F0008AB
:104B7000EFF30983203383F30988002383F311883B
:104B8000704700BF000000000000000000000000AF
:104B9000202383F31188FDF793BF00BF00000000BE
:104BA0000D4A10685169036830B401245A60002529
:104BB00080F820408C681360506181F8205000E03C
:104BC0001B689A689442FBD35A6830BCC1E9003232
:104BD00011605960FBF784BBAC1E00200000000090
:104BE00070B51B4D01466E69202383F31188006860
:104BF000CB68B363884225D0F46B4BB11A689342FB
:104C000003D09268944238BF1446DB68002BF5D17C
:104C10000368826BB4600B605960C1E90202816372
:104C2000FCF706FE2A686B6992689B689A4203D873
:104C3000002383F3118870BDFFF7B2FF002383F3D5
:104C4000118870BD00238360002383F3118870BD39
:104C5000AC1E00200000000000000000000000006A
:104C6000244B25481A6962F01F022DE980481A6119
:104C70001A6902F01F021A614FF0FF341A695A696B
:104C80005C61002259695A615969196A61F0805161
:104C90001962196A01F080511962196A596A5C62D5
:104CA000596A5A62596A196C41F080511964196E37
:104CB00041F080511966196E016841F480710160FC
:104CC000196F01F44071B1F5007F91B003D04FF43A
:104CD000803119671A67084C08486168084B094D0C
:104CE00021F40071002261600146026003F1C000FE
:104CF0000CE000BF0038024000700040742000202B
:104D0000607000081060024053F80C5C2A600C339D
:104D100098424A6001F10801F6D1C04CC048C14B2D
:104D2000C14E4FF0FF31A1606022E16040258160FB
:104D30008024C1604FF480704FF4007183F8062323
:104D4000C3F880511D6083F80723C3F880411C60BD
:104D500083F808234FF48064C3F88001186083F857
:104D60000923C3F8801119604FF4000183F80A2366
:104D7000C3F880411C6083F81723C3F880111960C1
:104D800083F828233146C3F8840106F18002586075
:104D90000023C1E9003308318A42FAD1A34FA44865
:104DA000A44DF8600120A44C7B6038704FF0804720
:104DB000EF6007F58837A149A7600627A04ADFF80A
:104DC000E4C22870C4E90533C4E903776B6020802E
:104DD0009C4DA37063609C4C0880C1E90377C1E9D6
:104DE00005338B704B608C6098491080C2E9037763
:104DF000C2E905339370536091602870EB61AB6238
:104E0000DCF840202B6242F00802CCF84020DCF8AD
:104E100060208F4CEB6242F00802CCF86020DCF896
:104E20006020A1688B4F6B624FF0A04CC5F854C056
:104E300041F00801DFF870C22B63C5E90133C5F802
:104E400058C0A16084497F6042F2CF048C624FF069
:104E5000FF34CC62BB608B61FF604B633F61CB6012
:104E60004B60486108606F497C4ADFF840827C48AB
:104E70004FF0800C81F832C34FF4802CC1F884C10C
:104E8000C1F804C007F118013F60C7E90611754970
:104E90009360C7E908435361D362CDE90B33C8E996
:104EA00001333B670D93C8F81430C8F80010142381
:104EB00008F10C019361C8E9031102F1280302F122
:104EC00010011161936202F1240102F13C0351626D
:104ED000D3631C2102F14403116353640A94624BAF
:104EE000136202F1400104249363C2E900225F4B84
:104EF0001164D46154635E4AC0E900230022002398
:104F0000CDE90E230AA8FCF713FC0AA8FCF7E8FB7E
:104F1000013CF7D1574B39690A9A3A6780204FF024
:104F2000010903F12C02DFF888E187F84D4003F115
:104F3000280CC7E91844C7E90E717863B86687F88A
:104F40004E90C7F844E04FF0200ACB60C7E9043325
:104F5000C7E915C287F84C90BC64FA658AF31188DA
:104F600062B6454B454AD9684FF6FF00014000F153
:104F700060400A43A0F60F30DA60C268404942F050
:104F80008072C2600A68102042EA09020A60D8777B
:104F900083F822A084F3118862B68AF31188394815
:104FA000FCF7CEFBFDF7A4FC84F3118836484A4693
:104FB0004FF40051FCF7F4FF4A4633484FF4804168
:104FC000FCF7EEFF4A4630484FF40041FCF7E8FF9B
:104FD0002E4852464946FCF7E3FF8AF31188022027
:104FE000FCF70EFA84F311888AF31188284BC6E97E
:104FF000003484F31188274BDFF8B8C0264A2749CC
:10500000DA63184603F17C0240F804CBC3E90722B7
:10501000234E596703F10C0E4EE000BF00600240C2
:105020000064024000E100E0281E0020A80C0020DF
:1050300000000140C00C0020681D0020881D0020D9
:10504000A81D0020C81D002000440040001401409D
:10505000002004E0AC1E0020000C0040201F0020B7
:1050600040200020E1140008B116000800000120D3
:10507000A0E10020D81E002000ED00E00003FA05AA
:10508000001000E0E4710008000802400000024047
:10509000011A0008D80C0020B1250008612600087C
:1050A000641D002000380240D47100085820002000
:1050B00018710008A473000803F68401586003F116
:1050C000440C40F204401A6302229C61C3E90D447F
:1050D000C3E91B44C3E903EEC3E91511C3E911CCCD
:1050E00083F8089083F8149083F84C901B649B67B6
:1050F0005962996698621866DA621A655A66DE65C0
:105100008AF31188BD492B62EB62EB611A72316040
:1051100084F311886A6D936B23F40023936343F641
:105120009820FDF71DFD8AF311882B78B44A6A6038
:105130004B45C5E90344C5E9054400F0A9810223B4
:105140002B70002484F311886A6DAE48936B43F48E
:1051500000239363082140F28232FCF721FF40F2E2
:105160008232A8484FF48061FCF71AFFA649A7488D
:10517000FDF7CEF8A649A748FDF7CAF8FEF7E0FE0E
:10518000A54B20221B6082F3118805A918681960BD
:105190007B69089401254FF0FF320590CDE9063573
:1051A000099284F311889D499D48DFF88892DFF8C1
:1051B00088B2FDF7CDFB9B499B48FDF7C9FBA9F1E0
:1051C000080A33681B681B78042B40F09A803CB3B4
:1051D0007D69202383F311886A6BD30740F19680A1
:1051E0006FF0010313406B63002585F3118894F879
:1051F00020300F2BE5D1202282F3118894F8223041
:10520000013B84F82230236A03F0FF130F2B00F0D8
:10521000878085F3118833681B681B78042B54D171
:10522000202383F311884846FDF7EAFB002383F32C
:105230001188D8F80420CAB1504600E01A465168D7
:1052400002F10F034D1C23F0070302EBC505A5EB8C
:10525000030C1C46083BAB424FEAEC0C02D2BCF5F7
:105260008C7F75D813681046002BE7D14846FFF7AE
:10527000B7FCD8F80030002B00F0878008221146D8
:1052800040F6C8009847044600287ED040F6C80380
:1052900040E9028304F6C8020C92644A0E9281230C
:1052A000634A0D93CDE90AB40F92202383F311884A
:1052B0000AA8FCF745FA012380F821300446FDF7DF
:1052C00017FB002383F3118882E742F21070FDF789
:1052D00047FC33681B681B78042BA1D042F2107086
:1052E000FDF73EFC33681B681B78042B98D042F214
:1052F0001070FDF735FC33681B681B78042B8FD0CA
:10530000002442F21070FDF72BFC5AE701236B6278
:105310000A20FDF75DFB6A6B02F00103DB4361E7E6
:10532000D4E90313D960E1680B6185F3118894F81F
:10533000213003F00303012B3DD0022B7FF46BAF30
:10534000236CE16982F311881A680A60196060E7CA
:1053500093421CD902F10801591A40F21910C910E0
:105360008445516009D0ACF58D711068C3F8D4182C
:1053700004F6C801C3F8D008116040F6C802C3E9BA
:1053800000824846FFF72CFC84E7002420E740F227
:105390001913994267D002F6D803EB1ADB10116893
:1053A000C2F8D43802F50D63C2F8D01802F108042F
:1053B00003601346E1E7E169029151E90203073313
:1053C000DB0841F8043C031D03930C30A1F10804F1
:1053D00082F311880190FDF713FB85F31188039B7D
:1053E000DDE901011A469342156801D0944202D9C1
:1053F00025B3AC4222D32A46F5E700BF7C720008F1
:10540000987200080000024030080020681D00204B
:1054100054080020881D0020D4DE0020513B0008E5
:1054200050E00020613C000808DF002071450008C2
:1054300084720008642000202070000851F8043CA9
:1054400041F8085C146051F8085C013304EBC30CAC
:10545000654515D055686B1C02EBC3039C4208D010
:10546000FFF7BEFBD7E61446134654F8082B02603C
:1054700083E751E9021301331D4411605560EFE7E2
:10548000D5E9005C634441F8085C41F8043CE1E77D
:10549000454BD5F85490596B444A41F0800159630B
:1054A000596D41F080015965596D596941F080018C
:1054B0005961596921F0800159615B693C49E023D8
:1054C00082F843330823C2F888319360394BC9F816
:1054D0000C10C022C9F800384FF43413C9F8004E3C
:1054E000C9F80020C9F83830D9F81030002BFBDAA1
:1054F0000123C9F810300C20FCF7E2FAD9F810406B
:1055000014F00104FAD11220FCF7DAFAD9F81030BD
:10551000002BFBDAD5E91513D3F808E00023C9F80E
:1055200008304FF0FF3C00E0544601EB44121346B4
:10553000D2F80009002804F1010A05DAD2F80009BE
:1055400040F08040C2F80009D2F8000B002805DACC
:10555000D2F8000B40F08040C2F8000BA645C3F81B
:1055600008C9C3F808CBDFD16B68DA684FF00113C4
:10557000C1F81C380023C9F81038C9F81438C9F824
:105580001C386AB10C4BC9F818304FF0FF33C9F81A
:105590001430D9F8083043F00103C9F80830CEE5DB
:1055A000064BC9F81830F0E70038024000E100E08F
:1055B0004014004003002002083C30C0003C30C0D2
:1055C000684BDFF8E8C11A696748684942F01F0272
:1055D000F0B41A611A69664D664F674C22F01F02DB
:1055E0001A611A691A6B42F01F021A631A6D42F0AF
:1055F0001F021A654FF480721E6D6A604FF6FF76C7
:105600006FF05002AA60C5F80CC04FF42A226E61F8
:105610002F625A4F6A6200222F604FF0FF35584FB9
:1056200042608560C760802746610262426207600F
:10563000544F4A608D60CF604FF080674E610A62C0
:105640004A620F6001F5A0514FF055376260A560C6
:10565000E7606661226262622260C0F8042CA4F5F1
:10566000CE34C0F8085CC0F80C7CC0F8146CC0F8EC
:10567000202CC0F8242CC0F8002C43484A608D60D0
:10568000C8604FF080554FF400404E610A624A6294
:105690000A601D6420601A6842F001021A601A68EC
:1056A0009607FCD599682F4A21F003019960936809
:1056B00013F00C03FBD110682A4900F0F9001060C8
:1056C0009360136843F4803313600B689D03FCD52B
:1056D0004A6F244B42F001024A675A6F9407FCD587
:1056E0002A4A5A601A682A4942F080721A604B6846
:1056F0005804FCD51B4B1A689201FCD525499960CA
:10570000254A0321C3F88C101268244B9A421ED0FC
:10571000234B40F202721A60214A136803F00F0310
:10572000022BFAD10F4B9A6842F002029A609A68F3
:1057300002F00C02082AFAD15A6C42F480425A64F0
:105740005A6E42F480425A66F0BC5B6E7047154A4E
:10575000154B12689A42DBD1114B4FF481721A60DB
:10576000DAE700BF003802400004024000080240AF
:105770000000024000775055000C0240A0A9802A8A
:1057800055545555555555015055555519544107C2
:105790000070004000108838002004E011640020F0
:1057A000003C024000ED00E041C20F4105001564DD
:1057B00008B50348FCF79CF9BDE80840FBF750BF6B
:1057C000A81D0020000000000000000000000000F4
:1057D00008B50348FCF78CF9BDE80840FBF740BF6B
:1057E000881D0020000000000000000000000000F4
:1057F00008B50348FCF77CF9BDE80840FBF730BF6B
:10580000681D0020000000000000000000000000F3
:1058100008B50348FCF754FABDE80840FBF720BF81
:10582000C00C00200000000000000000000000008C
:1058300008B50348FCF744FABDE80840FBF710BF81
:10584000A80C002000000000000000000000000084
:10585000FFF7EEBF000000000000000000000000A5
:105860002DE9F843284C2369E2681340DAB2D243A9
:105870009B07226103D4BDE8F843FBF7F1BE202368
:1058800083F31188214D676AAB696A6A9968BE1A09
:10589000B14205F1180998BF4FF0000820D8202721
:1058A00000E06A6A18680A4448456A62A6EB010685
:1058B000DA68C0F80490A861C3F80C8008BFC4F887
:1058C0000C8088F311881869904787F31188AB69B9
:1058D00099688E42E5D2676A6A6ABE1A8E42DED243
:1058E0004B450AD099686F62C91B0A4406499A6001
:1058F000022A2CBFBF1802374F63002383F311889D
:10590000BDE8F843FBF7ACBE000C0040AC1E002025
:105910002DE9F84F9F4C666D7569B3691D4015F40C
:105920008058756140F03881002DC0F2C280290591
:1059300038D5D4E915730021D3F808904FF0FF3C17
:1059400000E0714607EB41121346D2F80009002827
:1059500001F1010E05DAD2F8000940F08040C2F8EA
:105960000009D2F8000B002805DAD2F8000B40F04D
:105970008040C2F8000B8945C3F808C9C3F808CBBA
:10598000DFD1227884F850206368052222701B68DA
:105990004FF00112C7F81C2813B17E480421984724
:1059A0000023A360AA040CD5D6F8083813F0060F1C
:1059B000F36823F470530CBF43F4105343F4A05323
:1059C000F3602B0729D4EF022FD4A80200F1B68090
:1059D000EB0600F188802903D6F818480BD5E203BE
:1059E00000F19481A30300F18781670300F18A81AC
:1059F000260300F149816D030BD5E00700F1928188
:105A0000A10700F18B81620700F18481230700F177
:105A10004281BDE8F84FFBF723BE6368DB68002BCB
:105A2000D1D05C489847EF02CFD50021D4F854B0CC
:105A3000DFF860A10F464FF0010906E0A36D0137C2
:105A40009B68FFB29F423946BFD80BEB4713D3F890
:105A5000002902F44022B2F5802FEFD1D3F80029BB
:105A6000002AEBDAD3F8002942F09042C3F800296B
:105A7000D3F80029002AFBDB626D890141F0200187
:105A8000116113699906FCD41220FCF719F804EB94
:105A900087032189DA6809FA07F3926821EA030388
:105AA000238112B13946504690473846FBF7D0FC67
:105AB000C4E7D6F8003E980740F0DF8094F85030F5
:105AC00062682370D6F80438126823F00103C6F820
:105AD0000438002A3FF42BAF05212E4890472905B2
:105AE0007FF560AF25E7616D0B6A03F4F010B0F548
:105AF000802FC3F30A1203F00F0300F0D380B0F538
