:020000040800F2
:1000000000040020D9020008DB020008DB0200081F
:10001000DB020008DB020008DB020008DB0200084C
:10002000DB020008DB020008DB0200086148000870
:10003000DB020008DB020008DB020008DB0200082C
:10004000DB020008DB020008DB020008DB0200081C
:10005000DB020008DB020008DB020008DB0200080C
:10006000DB020008DB020008DB020008DB020008FC
:10007000DB020008DB020008DB020008DB020008EC
:10008000DB020008DB020008DB020008DB020008DC
:10009000DB020008DB020008DB020008DB020008CC
:1000A000DB020008A1570008DB020008C157000866
:1000B00081570008DB020008DB020008DB020008B1
:1000C000DB020008DB020008DB020008DB0200089C
:1000D000DB0200086157000841570008DB020008F6
:1000E000DB020008DB020008DB020008DB0200087C
:1000F000DB020008DB020008DB020008DB0200086C
:10010000DB020008DB020008D1570008DB02000810
:10011000DB020008DB020008DB020008DB0200084B
:10012000DB020008DB020008DB020008DB0200083B
:10013000DB020008DB020008DB020008DB0200082B
:10014000DB020008DB020008DB020008815800081F
:10015000DB020008DB020008DB0200082157000870
:10016000DB020008DB020008DB020008DB020008FB
:10017000DB020008DB020008DB020008DB020008EB
:10018000DB020008DB020008DB020008DB020008DB
:10019000DB020008DB020008DB020008DB020008CB
:1001A000DB020008DB020008DB020008DB020008BB
:1001B000DB020008DB020008DB020008DB020008AB
:1001C000DB020008DB020008DB020008DB0200089B
:1001D000DB020008DB020008DB020008DB0200088B
:1002000072B6274880F30888264880F30988264874
:100210004EF60851CEF200010860022080F31488E7
:10022000BFF36F8F05F08CFD05F082F94FF055306C
:100230001E491B4A91423CBF41F8040BFAE71C4996
:10024000184A91423CBF41F8040BFAE719491A4A8F
:100250001A4B9A423EBF51F8040B42F8040BF8E7E0
:1002600000201749174A91423CBF41F8040BFAE7B6
:1002700005F01EFD05F05CFD134C144DAC4203DA95
:1002800054F8041B8847F9E704F09AFC104C114D10
:10029000AC4203DA54F8041B8847F9E705F040BD87
:1002A00000040020000800200000000800000020DA
:1002B00000040020BC6D000800080020680C00202D
:1002C000680C0020E8440020E0010008E00100087C
:1002D000E0010008E001000892E700F000F8FEE706
:1002E0002DE9F04FC1F814D043699D46BDE8F08F69
:1002F000002383F311882846A047002004F0C0FAA9
:10030000FEE704F0C5FA00DFFEE70000844641EA9C
:10031000000313F003036DD1403A41D351F8043B7D
:1003200040F8043B51F8043B40F8043B51F8043BCF
:1003300040F8043B51F8043B40F8043B51F8043BBF
:1003400040F8043B51F8043B40F8043B51F8043BAF
:1003500040F8043B51F8043B40F8043B51F8043B9F
:1003600040F8043B51F8043B40F8043B51F8043B8F
:1003700040F8043B51F8043B40F8043B51F8043B7F
:1003800040F8043B51F8043B40F8043B51F8043B6F
:1003900040F8043B51F8043B40F8043B403ABDD2DE
:1003A000303211D351F8043B40F8043B51F8043B80
:1003B00040F8043B51F8043B40F8043B51F8043B3F
:1003C00040F8043B103AEDD20C3205D351F8043B0F
:1003D00040F8043B043AF9D2043208D0D2071CBFDB
:1003E00011F8013B00F8013B01D30B880380604604
:1003F000704700BF082A13D38B078DD010F003037A
:100400008AD0C3F10403D21ADB071CBF11F8013BE9
:1004100000F8013B80D331F8023B20F8023B7BE738
:10042000043AD9D3013A11F8013B00F8013BF9D263
:100430000B7803704B7843708B78837060467047FD
:10044000A2EB0300704700BF02780B78012A28BF97
:100450009A42F5D16DE9044540EA0104CDE902670D
:100460006FF0000C4FEA447212B380EA010414F0FA
:10047000070F6AD100F0070420F0070004F003051D
:1004800021F007014FEAC505F0E8042314F0040F3A
:10049000F1E804670CFA05F462EA040266EA04066D
:1004A0000AD063EA0403624667EA0407664603E08B
:1004B000F0E80423F1E8046782FA4CF582EA0604C6
:1004C000A4FA8CF46CBB83FA4CF583EA0705A5FA11
:1004D0008CF595B950E9022351E9026782FA4CF58F
:1004E00082EA0604A4FA8CF483FA4CF583EA070541
:1004F000A5FA8CF52543DBD09CB92DBAB5FA85F465
:1005000024F0070427FA04F1DDE9026723FA04F373
:1005100003F0FF0001F0FF01FDE80445A0EB01003E
:10052000704724BAB4FA84F424F0070426FA04F1DC
:10053000DDE9026722FA04F202F0FF0001F0FF0198
:10054000FDE80445A0EB0100704714F0030F3CD117
:1005500010F0030428D150F8082B51F8083B82FA18
:100560004CF582EA0305A5FA8CF55DB950F8042C28
:1005700051F8043C82FA4CF582EA0305A5FA8CF5A1
:10058000002DE8D02DBAB5FA85F424F0070423FA3B
:1005900004F122FA04F202F0FF0001F0FF01FDE88D
:1005A0000445A0EB010070474FEAC40420F00300AB
:1005B00050F8082B21F0030151F8083B0CFA04F421
:1005C00062EA040263EA0403C9E710F003041AD0E4
:1005D000A1EB040120F00300E40750F8042B06D03F
:1005E0000FD28B785FFAA2F4E41A06D12BB1CB7844
:1005F0005FFAB2F4E41A00D11BB920465DF8104B43
:10060000704701F1040150F8042BCC0721F00301DD
:1006100051F8043B48D824D222F07F4482FA4CF5AA
:1006200094EA1325A5FA8CF50AD165B951F8043B73
:1006300084EA0204B4EB036F0ED150F8042BEBE70D
:100640004FEA132355E035F07F454DD10878FDE89A
:100650000445C0F1000070474FEA126203F0FF0347
:1006600047E002EA1C4482FA4CF594EA1345A5FAE5
:100670008CF50AD165B951F8043B84EA0204B4EB65
:10068000034F0CD150F8042BEBE74FEA134330E053
:1006900015EA1C4528D10B884FEA124229E04FEA9F
:1006A000124203EA1C4324E002F0FF0482FA4CF5F4
:1006B00094EA1365A5FA8CF50AD165B951F8043BA3
:1006C00084EA0204B4EB032F09D150F8042BEBE7C2
:1006D0004FEA13630DE015F0FF0F05D10B684FEAE9
:1006E000122223F07F4304E04FF00000FDE80445B0
:1006F000704712BA1BBA82FA4CF482EA0304A4FAD5
:100700008CF5B5FA85F402FA04F203FA04F34FEA21
:100710001260FDE80445A0EB136070470000000084
:1007200000000000000000000000000000000000C9
:1007300000000000000000000000000000000000B9
:1007400090F800F06DE9024520F007016FF0000C11
:1007500010F0070491F820F040F049804FF00004B9
:100760006FF00700D1E9002391F840F000F1080094
:1007700082FA4CF2A4FA8CF283FA4CF3A2FA8CF3CC
:100780004BBBD1E9022382FA4CF200F10800A4FA33
:100790008CF283FA4CF3A2FA8CF3E3B9D1E9042387
:1007A00082FA4CF200F10800A4FA8CF283FA4CF3BE
:1007B000A2FA8CF37BB9D1E9062301F1200182FA78
:1007C0004CF200F10800A4FA8CF283FA4CF3A2FA7E
:1007D0008CF3002BC6D0002A04BF04301A4612BA8C
:1007E000B2FA82F2FDE8024500EBD2007047D1E98F
:1007F000002304F00305C4F100004FEAC50514F01E
:10080000040F91F840F00CFA05F562EA05021CBFEE
:1008100063EA050362464FF00004A9E781F0004156
:1008200002E000BF83F0004330B54FEA41044FEAD5
:10083000430594EA050F08BF90EA020F1FBF54EA70
:10084000000C55EA020C7FEA645C7FEA655C00F00C
:10085000E2804FEA5454D4EB5555B8BF6D420CDDDD
:100860002C4480EA020281EA030382EA000083EA60
:10087000010180EA020281EA0303362D88BF30BD00
:1008800011F0004F4FEA01314FF4801C4CEA113156
:1008900002D0404261EB410113F0004F4FEA0333B5
:1008A0004CEA133302D0524263EB430394EA050F40
:1008B00000F0A780A4F10104D5F1200E0DDB02FAAF
:1008C0000EFC22FA05F2801841F1000103FA0EF243
:1008D000801843FA05F359410EE0A5F120050EF109
:1008E000200E012A03FA0EFC28BF4CF0020C43FA3A
:1008F00005F3C01851EBE37101F0004507D54FF047
:10090000000EDCF1000C7EEB00006EEB0101B1F596
:10091000801F1BD3B1F5001F0CD349085FEA3000DC
:100920004FEA3C0C04F101044FEA445212F5800FE7
:1009300080F09A80BCF1004F08BF5FEA500C50F184
:10094000000041EB045141EA050130BD5FEA4C0C67
:10095000404141EB0101013C28BFB1F5801FE9D2C4
:1009600091F0000F04BF01460020B1FA81F308BFE7
:100970002033A3F10B03B3F120020CDA0C3208DDB3
:1009800002F1140CC2F10C0201FA0CF021FA02F18E
:100990000CE002F11402D8BFC2F1200C01FA02F1FE
:1009A00020FA0CFCDCBF41EA0C019040E41AA2BF23
:1009B00001EB0451294330BD6FEA04041F3C1CDAEB
:1009C0000C340EDC04F11404C4F1200220FA04F00B
:1009D00001FA02F340EA030021FA04F345EA0301B5
:1009E00030BDC4F10C04C4F1200220FA02F001FA77
:1009F00004F340EA0300294630BD21FA04F02946F9
:100A000030BD94F0000F83F4801306BF81F4801191
:100A10000134013D4EE77FEA645C18BF7FEA655C04
:100A200029D094EA050F08BF90EA020F05D054EAD6
:100A3000000C04BF1946104630BD91EA030F1EBFDB
:100A40000021002030BD5FEA545C05D140004941DF
:100A500028BF41F0004130BD14F580043CBF01F5D2
:100A6000801130BD01F0004545F0FE4141F47001B8
:100A70004FF0000030BD7FEA645C1ABF1946104693
:100A80007FEA655C1CBF0B46024650EA013406BF94
:100A900052EA033591EA030F41F4002130BD00BF53
:100AA00090F0000F04BF0021704730B54FF4806410
:100AB00004F132044FF000054FF0000150E700BF91
:100AC00090F0000F04BF0021704730B54FF48064F0
:100AD00004F1320410F0004548BF40424FF00001DD
:100AE0003EE700BF42004FEAE2014FEA31014FEA20
:100AF00002701FBF12F07F4393F07F4F81F060516F
:100B0000704732F07F4208BF704793F07F4F04BFB9
:100B100041F40021704730B54FF4607401F0004596
:100B200021F000411CE700BF50EA010208BF7047F6
:100B300030B54FF000050AE050EA010208BF7047E7
:100B400030B511F0004502D5404261EB41014FF450
:100B5000806404F132045FEA915C3FF4D8AE4FF058
:100B600003025FEADC0C18BF03325FEADC0C18BF3B
:100B7000033202EBDC02C2F1200300FA03FC20FA8C
:100B800002F001FA03FE40EA0E0021FA02F11444D9
:100B9000BDE600BF70B54FF0FF0C4CF4E06C1CEAF2
:100BA00011541DBF1CEA135594EA0C0F95EA0C0F63
:100BB00000F0DEF82C4481EA030621EA4C5123EAD6
:100BC0004C5350EA013518BF52EA033541F4801105
:100BD00043F4801338D0A0FB02CE4FF00005E1FBB8
:100BE00002E506F00042E0FB03E54FF00006E1FB02
:100BF00003569CF0000F18BF4EF0010EA4F1FF0445
:100C0000B6F5007F64F5407404D25FEA4E0E6D4184
:100C100046EB060642EAC62141EA55514FEAC52095
:100C200040EA5E504FEACE2EB4F1FD0C88BFBCF511
:100C3000E06F1ED8BEF1004F08BF5FEA500E50F1C2
:100C4000000041EB045170BD06F0004646EA010188
:100C500040EA020081EA0301B4EB5C04C2BFD4EBBA
:100C60000C0541EA045170BD41F480114FF0000EB3
:100C7000013C00F3AB8014F1360FDEBF002001F021
:100C8000004170BDC4F10004203C35DA0C341BDC9B
:100C900004F11404C4F1200500FA05F320FA04F06D
:100CA00001FA05F240EA020001F0004221F00041A1
:100CB00010EBD37021FA04F642EB06015EEA430E14
:100CC00008BF20EAD37070BDC4F10C04C4F1200544
:100CD00000FA04F320FA05F001FA04F240EA0200F7
:100CE00001F0004110EBD37041F100015EEA430EC8
:100CF00008BF20EAD37070BDC4F1200500FA05F2E8
:100D00004EEA020E20FA04F301FA05F243EA020366
:100D100021FA04F001F0004121FA04F220EA020075
:100D200000EBD3705EEA430E08BF20EAD37070BDBB
:100D300094F0000F0FD101F00046400041EB01019B
:100D400011F4801F08BF013CF7D041EA060195F07D
:100D5000000F18BF704703F00046520043EB030337
:100D600013F4801F08BF013DF7D043EA0603704724
:100D700094EA0C0F0CEA135518BF95EA0C0F0CD02F
:100D800050EA410618BF52EA4306D1D181EA030175
:100D900001F000414FF0000070BD50EA410606BF6F
:100DA0001046194652EA430619D094EA0C0F02D1B4
:100DB00050EA013613D195EA0C0F05D152EA0336F9
:100DC0001CBF104619460AD181EA030101F0004117
:100DD00041F0FE4141F470014FF0000070BD41F060
:100DE000FE4141F4780170BD70B54FF0FF0C4CF43A
:100DF000E06C1CEA11541DBF1CEA135594EA0C0F59
:100E000095EA0C0F00F0A7F8A4EB050481EA030EA5
:100E100052EA03354FEA013100F088804FEA03338C
:100E20004FF0805545EA131343EA12634FEA02225A
:100E300045EA111545EA10654FEA00260EF000411B
:100E40009D4208BF964244F1FD0404F5407402D26D
:100E50005B084FEA3202B61A65EB03055B084FEAFE
:100E600032024FF480104FF4002CB6EB020E75EBFB
:100E7000030E22BFB61A754640EA0C005B084FEA23
:100E80003202B6EB020E75EB030E22BFB61A7546A0
:100E900040EA5C005B084FEA3202B6EB020E75EBEB
:100EA000030E22BFB61A754640EA9C005B084FEA63
:100EB0003202B6EB020E75EB030E22BFB61A754670
:100EC00040EADC0055EA060E18D04FEA051545EA5F
:100ED00016754FEA06164FEAC30343EA52734FEA08
:100EE000C2025FEA1C1CC0D111F4801F0BD141EA81
:100EF00000014FF000004FF0004CB6E711F4801FE6
:100F000004BF01430020B4F1FD0C88BFBCF5E06FC5
:100F10003FF6AFAEB5EB030C04BFB6EB020C5FEAD5
:100F2000500C50F1000041EB045170BD0EF0004E2A
:100F30004EEA113114EB5C04C2BFD4EB0C0541EA5C
:100F4000045170BD41F480114FF0000E013C90E659
:100F500045EA060E8DE60CEA135594EA0C0F08BF1D
:100F600095EA0C0F3FF43BAF94EA0C0F0AD150EA1C
:100F700001347FF434AF95EA0C0F7FF425AF1046AF
:100F800019462CE795EA0C0F06D152EA03353FF4D7
:100F9000FDAE1046194622E750EA410618BF52EA54
:100FA00043067FF4C5AE50EA41047FF40DAF52EA28
:100FB00043057FF4EBAE12E74A0011D212F500129E
:100FC00011D20DD56FF47873B3EB62520ED44FEAA1
:100FD000C12343F0004343EA505323FA02F0704721
:100FE0004FF00000704750EA013002D14FF0FF305F
:100FF00070474FF00000704753B94AB9002908BF45
:1010000000281CBF4FF0FF314FF0FF3000F06CB9EB
:10101000ADF1080C6DE904CE00F006F8DDF804E04F
:10102000DDE9022304B070472DE9F047089E0D4624
:1010300004468E46002B40F082808A42174646D9ED
:10104000B2FA82F24AB1C2F1200105FA02F320FAA3
:1010500001F1974041EA030E94404FEA1748230CF0
:10106000BEFBF8FCB9B208FB1CEE43EA0E430CFBD6
:1010700001F098420AD9FB180CF1FF3580F0168177
:10108000984240F21381ACF1020C3B441B1AA4B20B
:10109000B3FBF8F008FB103344EA034400FB01F112
:1010A000A14209D93C1900F1FF3380F00181A1422E
:1010B00040F2FE8002383C44641A40EA0C400021B1
:1010C0001EB1D4400023C6E90043BDE8F08702B951
:1010D000FFDEB2FA82F2002A4FD1CB1B4FEA174E45
:1010E0001FFA87F80121B3FBFEFC250C0EFB1C3315
:1010F00045EA034508FB0CF3AB4207D97D190CF117
:10110000FF3002D2AB4200F2E7808446ED1AA3B270
:10111000B5FBFEF00EFB105543EA054408FB00F852
:10112000A04507D93C1900F1FF3302D2A04500F2D7
:10113000D7801846A4EB080440EA0C40C0E78B4275
:1011400008D9002E00F0AF800021C6E9000508464E
:10115000BDE8F087B3FA83F100294BD1AB4202D34B
:10116000824200F2B780841A65EB030301209E4699
:10117000002EAAD0C6E9004EA7E7C2F1200C01FA62
:1011800002F3974020FA0CF04FEA174E21FA0CFCBC
:101190001843BCFBFEF1050C0EFB11CC1FFA87F8BF
:1011A00045EA0C4501FB08F3AB4204FA02F409D905
:1011B0007D1901F1FF3C80F08B80AB4240F28880CA
:1011C00002393D44EB1A85B2B3FBFEF00EFB10333F
:1011D00045EA034500FB08F3AB4207D97D1900F14E
:1011E000FF3C71D2AB426FD902383D44EB1A40EA62
:1011F000014178E7C1F1200C8B4022FA0CF71F4324
:1012000020FA0CF405FA01F34FEA174E25FA0CF513
:101210001C43230CB5FBFEF91FFA87F80EFB19558A
:1012200043EA054509FB08FAAA4502FA01F200FA69
:1012300001F308D97D1909F1FF3047D2AA4545D9F4
:10124000A9F102093D44A5EB0A05A4B2B5FBFEF0E5
:101250000EFB105544EA054400FB08F8A04507D9E9
:101260003C1900F1FF352DD2A0452BD902383C4462
:1012700040EA0940A4EB0804A0FB02894C45C6469D
:101280004D4619D316D05EB1B3EB0E0264EB0504E4
:1012900004FA0CFCCA404CEA0202CC40C6E9002425
:1012A0000021BDE8F087314630460EE7AC46EDE65A
:1012B000184601E74345E6D2B8EB020E69EB070595
:1012C0000138E0E72846D3E760468FE78146BAE772
:1012D000614677E708464BE7ACF1020C3D4415E761
:1012E00002383C4426E700BF704700BF0000000002
:1012F000F0B40346134A43F8042B012200254FF4AF
:10130000807700F5157600F10C044360C16400F5A8
:10131000AA73027200F1300100F154024561C0E984
:101320000344856287630664C0E90822F0BCC0E913
:101330001133C0E90C11C06200658261C361C363EF
:10134000704700BF5C6C0008000000000000000057
:101350000E49CA68D36813F0FF000CD149681061C8
:10136000087D48B9886868B143F00603096909B186
:1013700043F00103D360704788680028F4D143F03C
:101380000403F3E743F00203F0E700BF800C002002
:1013900030B4202383F31188027A012A45D0D0F893
:1013A0005432424A424993422FD002F5806293421E
:1013B0002BD0B1F904500C683E4AB2FBF4F2002D78
:1013C0008C882BDBCD8809899A6044F4045204F49C
:1013D000A05441F00101B4F5806F45F0400542F0A2
:1013E0002C024FF000041D615961DA6008BF7F21B3
:1013F0001C6018BFFF2102221D685B6880F858122C
:10140000027284F3118830BC7047B1F904500C6843
:10141000294AB2FBF4F2002D8C88D3DA22F00705BA
:1014200002F0070242EA4502CCE7244A90422BD060
:10143000234B984215D0234B9842B0D1224B234ADC
:10144000596C41F020015964596E41F020015966F0
:10145000C02480215B6E82F84743C2F888119160F6
:101460009DE7194B194A196C41F400311964196E42
:1014700041F400311966C02440211B6E82F82643D6
:10148000C2F8841151608AE70F4A1049546C44F045
:1014900010045464546E44F010045466C024526E18
:1014A00081F82543C1F884314B6078E70010014092
:1014B0002C08002080DE800200BD0105980C002071
:1014C000F40E0020501100200038024000E100E03E
:1014D000224A02EB80032DE9F043D968D2F85490F8
:1014E00080464869D0E90037BB4228D908F1010499
:1014F000B1F810E009EB043409EB481CDE1BDCF802
:101500001829764528BF764693B2B6EB830F21D8CB
:101510008568042E2B6823600AD9711F21F003010E
:10152000043129442B4653F8042F22609942FAD102
:10153000036837443544BB42C0E90175DED8D9F8A9
:101540003438012000FA08F823EA0803C9F83438CF
:10155000BDE8F0830020BDE8F08300BF3C18002008
:1015600030B4202383F311880B4CD4E90035494271
:10157000281A0840821A9A4207D3954205D362601E
:10158000002383F3118830BC70470020002383F3CD
:10159000118830BC704700BF301A002000000000E6
:1015A000024AD36843F0C003D36070470010014083
:1015B000024AD36843F0C003D36070470044004040
:1015C000024AD36843F0C003D3607047001401405F
:1015D00042690949094B0A4810B414684A6982F4FF
:1015E00000424A611B680268C3F10103234493422D
:1015F00010BC38BF0360704700080240B81C0020D0
:10160000380800200000000000000000000000007A
:10161000036905491B68054A01330B60536983F46C
:1016200080435361704700BFB81C0020000802408F
:1016300090F84420034602F01F00012803D193F8DC
:1016400045100B291BD002F06002202A01D0002097
:10165000704793F84520212A09D81F2AF7D90A4A4A
:101660009A6307210022C3E90F1201207047222A42
:10167000EDD10022C3E90E221A6401207047002236
:10168000C3E90E221A6470472408002000000000FD
:10169000022906D0032906D00129074818BF0020D7
:1016A000704706487047032A03D8054800EBC2007C
:1016B00070470020704700BFB46B0008606B0008E3
:1016C0003C6C00080000000000000000000000006A
:1016D000202383F311880D4B5B6813F4006302D160
:1016E00083F311887047EFF30983203B4FF080723A
:1016F000DA6183F30988064A116852698968926839
:1017000091428CBF034A044A9A61704700ED00E0A1
:101710009C180020030300080603000800000000D6
:10172000084A10B4D2E900344942201A08409842CD
:1017300004D3844202D310BC50607047002010BC18
:10174000704700BF301A00200000000000000000B9
:101750000E4A0F4B52681B6F816830B4D31AD0E920
:101760000445C2685B1A01324168C260E41802682D
:10177000836045F100058B4288BF43609342C0E916
:10178000044538BF036030BC704700BF001000E064
:101790009C18002000000000000000000000000075
:1017A000014B5B6883607047001000E000000000A0
:1017B000836841681A4AF0B4D0E90475022643F8F8
:1017C0002C1C0124002143E91B750568C06803F83F
:1017D000271C03F8286C03F8264C43F83C2C1469AA
:1017E00043F8400C43F80C0C43F8305CA3F16C0058
:1017F0000C4D43F8340C43E90511A3F1480043F8BC
:101800004C5CA3F11C01A3F1200543F8384CE060C7
:10181000106143E9085143F8181CF0BC704700BF41
:101820009C180020F10200080000000000000000E9
:10183000202383F3118890F82030072B0DD8DFE8A0
:1018400003F0270C0C2308040C08426A9368013348
:101850009360D0E9003213605A6010B400224FF058
:10186000FF3481680C4B446280F820201B689A6822
:101870008A42FBD25A680021C0E9003210605860E9
:1018800081F3118810BC7047436A00221A60E4E7B4
:10189000002383F3118870479C180020000000008B
:1018A00000228168064B80F820201B689A688A42D3
:1018B000FBD25A68C0E9003210605860704700BF20
:1018C0009C18002000000000000000000000000044
:1018D00038B50446006884420AD06FF001050368F9
:1018E00023605C604562FFF7DBFF2068A042F6D111
:1018F00038BD00BF00000000000000000000000034
:1019000003460068834206D002681A6000215360D3
:101910004162FFF7C5BF70470000000000000000F3
:10192000F8B50468A04221D007460D46002604E021
:101930000B2A1CD02468A74218D0E3682B43E3602D
:1019400015B123691D42F5D0D4E90103416B90F82C
:1019500020200B430A2A4363EAD1426A1342E9D0AA
:101960004662FFF79DFF2468A742E6D1F8BD426AB0
:1019700032EA0303DED1F3E70000000000000000BC
:10198000034A516853685B1A9842FBD8704700BFFE
:10199000001000E000000000000000000000000057
:1019A000FEE700BF00000000000000000000000093
:1019B0002DE9F047D0F85462D6F80C903368DA0578
:1019C00005469CB275D4202383F3118814F02F0FA1
:1019D00045D02F1D05F10C0808E0A006D6F804A09C
:1019E0001ED4336813F02F0F9CB238D02307F4D0E5
:1019F00014F0080F0CBF00218021E00748BF41F020
:101A00002001A20748BF41F04001630748BF41F4ED
:101A100080713846FFF784FFA006D6F804A0E0D511
:101A20006B6995F858429BB3D5E90832934237D099
:101A30006A69591C013204EA0A0A6A61296283F858
:101A400000A0D5E907329A4201D3AB692B62404628
:101A5000FFF756FF336813F02F0F9CB2C6D1002357
:101A600083F3118819F0800F01D0220630D419F0C9
:101A7000400F0BD0630609D5202383F31188D5E9E5
:101A800011239A423FD0002383F31188BDE8F087E9
:101A900004213846FFF744FFD5E908329342C7D105
:101AA0006A69002AC4D04FF480613846FFF738FFD6
:101AB00097E7202383F311884FF400710430FFF778
:101AC0002FFF6FF480733360002383F311887AE76C
:101AD000202383F31188D5E911239A4220D0AA6BE1
:101AE000296C581C0132AA63A86488421F7801D36C
:101AF000EB6BAB6405F13000FFF702FF776000236A
:101B000083F31188B3E7AB6B002BBCD0281D1021E9
:101B1000FFF706FF4FF6BF7309EA0303F360B2E76E
:101B2000AA6B002ADBD00821281DFFF7F9FE4FF62B
:101B30007F7309EA0303F360E1E700BF00000000E0
:101B400038B5C36841681A69DD681540EAB2D24306
:101B50001A610B7D04467BB96B072BD50378042BE8
:101B600025D0A9070FD4ED0705D5636820461B696A
:101B700098470323237038BDAA070AD50378042B9E
:101B800004D06B07EFD504232370ECE78B68D3B147
:101B900098476B07E7D52378042BF4D16168CB68AD
:101BA000002BF0D02046984704232370DBE78B6896
:101BB00033B19847A907D6D52378042BE3D1EDE7B5
:101BC000A807ECD4CFE76A07E9D4CCE7000000000F
:101BD00000EB810330B4DC6862691368D360F3B949
:101BE000426D02EB41134FF40020C3F81009236843
:101BF00003F00303012B2AD008B202EB40100123AB
:101C0000D0F8004944F00444C0F80049D2F8340840
:101C100003FA01F1014330BCC2F83418704719B916
:101C2000402B84BF40231360258A426D681E1844F0
:101C3000B0FBF5F002EB411543EAC04343F000531B
:101C4000C5F81039236803F00303012BD4D1D2F86F
:101C5000083813F4807F02EB411308B2D3F800492F
:101C600014BF44F0805444F00054C3F80049C4E762
:101C7000204AF8B5566D06EB40130446D3F80859D0
:101C8000C3F80859E80703D5D6F81038D90708D49F
:101C90002B0605D5D6F834280123A340134215D1CD
:101CA000F8BD02EB8403D86843691F68D9688F4286
:101CB00011D3138987680121A14023EA010313810D
:101CC000002FE5D010462146B847E1E72046BDE8A1
:101CD000F840FFF7FDBBC91B0027C3E9001720230D
:101CE00083F3118810462146FFF772FF87F31188AE
:101CF000CEE700BF3C1800200000000000000000FC
:101D000000EB810330B4DD68AB691C68DC6019B995
:101D1000402C84BF40241C606B8A406D2D685A1E85
:101D20002244B2FBF3F202FB03F3033323F0030379
:101D300043EAC24300EB411405F0030243F0C04301
:101D4000012AC4F8103B0AD009B200EB411130BCA3
:101D5000D1F8003B43F00443C1F8003B7047D0F892
:101D6000083800EB411213F4807FD2F8003B14BF17
:101D700043F0805343F0005309B2C2F8003BE4E75C
:101D80002DE9F041244F7E6D06EB40130446D3F855
:101D9000085BC3F8085B280703D5D6F81438190781
:101DA00031D4EA072DD5D6F81438DB0729D507EB4F
:101DB0008403D9685CB98A69488A5568B5FBF0F331
:101DC00000FB13531BB91068D36898420DD37B896D
:101DD000CD680122A24023EA02037B818DB1214616
:101DE0002B460D48BDE8F04118471B1AC2E90034E4
:101DF000202383F3118808482146FFF781FF84F3ED
:101E00001188BDE8F08107EB84032146DB68384682
:101E10005B689847C5E700BF3C1800200000000041
:101E20002DE9F04F83B002F0030C01926646C2F335
:101E30004115D70900244FF00F094FF001084FF06A
:101E4000030E12E0D0F800B003EA0B033343072C73
:101E500003603DD8036A23EA0A0A4AEA02020262E0
:101E6000490832D0AD00B6000134CB07F8D543683D
:101E700008FA04F223EA02034360826863000EFA60
:101E800003F322EA03028260C26804F0070A22EA2E
:101E900003022A434FEA8A0ABCF1020FC2606FEACA
:101EA000030307FA0AF209FA0AFACBD1072C16D86B
:101EB000D0F820B02BEA0A0A4AEA0202026202685B
:101EC0001340334349080360CCD103B0BDE8F08F21
:101ED000436A23EA0A0A4AEA02024262C0E7D0F8E9
:101EE00024B02BEA0A0A4AEA02024262E7E700BF8C
:101EF00038B590F834300446152B16D8DFE803F0D7
:101F0000161515151515161515161616151515157C
:101F1000151515150B2CC3689B695B682BB9036CF1
:101F200003B19847002384F8343038BD436D4168CD
:101F3000D3F800290D6842F40012C3F80029D3F841
:101F4000002B42F40012C3F8002B0DB10621A84764
:101F5000062384F8343038BD0B2380F83430202336
:101F600083F31188C36802895B69002542F001028E
:101F700002812946C3E900559D60FFF729FE85F3DC
:101F8000118838BD000000000000000000000000C3
:101F900038B590F834300446152B21D8DFE803F02B
:101FA0000B20202020200B20202131482020202021
:101FB000202020200B0B436D4168D3F800290D68C9
:101FC00042F40012C3F80029D3F8002B42F40012A7
:101FD000C3F8002B0DB10621A847062384F834303E
:101FE00038BD90F84B2090F84A30C16B43EA022389
:101FF000994206D2C3681B8AB1FBF3F503FB1515A2
:10200000EDB1142384F83430202383F31188E3687E
:1020100062899B69002542F0010262812046C3E982
:1020200000559D602946FFF76BFE85F3118838BD8A
:10203000036C03B19847002384F8343038BD202363
:1020400083F31188C36802895B6942F0010202814F
:102050002946C3E900559D60FFF7BAFD85F3118855
:102060000A2384F8343038BD00000000000000006E
:10207000F0B400EB81050789D5F80CC00125DCF828
:1020800014608D403D4300270581C6E90037B260EA
:10209000F0BCFFF79DBD00BF000000000000000085
:1020A000816D8368F0B40C68C465002203F00113ED
:1020B0008F68446D8360C0E9042282614FF0FF3570
:1020C00000E0324604EB42110B46D1F8000900282B
:1020D00002F1010605DAD1F8000940F08040C1F8AC
:1020E0000009D1F8000B002805DAD1F8000B40F008
:1020F0008040C1F8000BBA42C3F80859C3F8085B26
:10210000DFD14FF00113C4F81C38F0BC704700BF9A
:10211000704700BF00000000000000000000000049
:1021200000207047000000000000000000000000D8
:1021300000207047000000000000000000000000C8
:10214000F8B5D0F88C140A681378042B02D1037AFE
:10215000022B01D00120F8BD0C795589012303FA27
:1021600004F42542F6D1D0E90746B44214D04979A7
:1021700002EB81030120DB6888409E690543231D33
:102180004FF48077002455811046C6E90074B3608F
:10219000FFF7B6FD2046F8BD80690028E7D0D9E7F3
:1021A000406BFFF7CDBF00BF000000000000000043
:1021B000093138B550F8214094B1202383F31188B8
:1021C000D4F88C241368527903EB8203DB689B6993
:1021D0005D6835B92046FFF7B3FF002383F311880C
:1021E00038BD04216018FFF79BFBE369616A1D603D
:1021F000A06AA26903448B42E36102F1010228BF95
:10220000236BA26104F10C0028BFE361FFF778FBA8
:10221000E0E700BF00000000000000000000000038
:10222000D0E90312521A816141618260FFF750BB0D
:102230000346D0E90420824203D050F8043B0B60EF
:102240007047DB68002BF8D00020704700000000CA
:1022500010B5446BD4F88C2413681978042982B023
:1022600002D1217A022901D002B010BD11791A8958
:1022700001238B401342F7D101A904F14400FFF779
:10228000D7FF0246D4F88C04019B01790068FFF760
:10229000EFFEE9E700000000000000000000000081
:1022A00010B5202382B083F311881E4CD4F88C24FF
:1022B00013681978042902D1217A022904D0002355
:1022C00083F3118802B010BD11791A8901238B4064
:1022D0001342F4D1D4E915329342F0D1226D002A91
:1022E000EDD0E26E002AEAD0043AD21AE7D01A60A2
:1022F000D4E9171003448B42226D636524BFA36E9B
:102300006365013A002301A907482265E366FFF7E8
:102310008FFF0246D4F88C04019B01790068FFF717
:10232000A7FECCE7AC130020F01300200000000053
:102330002DE9F04100EB810382B09E69F6B10446BD
:102340000D46202383F3118800EB8107301D0821FF
:10235000FFF7E6FAFB685B691B6893B906F144086E
:10236000404601A9FFF764FF024620B3019B2946BE
:102370002046FFF77DFE002383F3118802B0BDE8FD
:10238000F081D6E91720B36D316D03449342B365F4
:1023900001F1010128BFB36E316506F1440828BF81
:1023A000B3654046FFF7ACFA404601A9FFF740FF8E
:1023B00002460028DAD1FB685A691268002ADAD08E
:1023C0001B8A013B1340D6D1294604F14402204622
:1023D000FFF74EFECFE700BF000000000000000046
:1023E00070B434490B78012B43D0D1E9022300208B
:1023F00018605863986358624868D0E90645466893
:10240000B2FBF6F224F0FF040026013A1E61DC6004
:102410009A62A5B94FF0FF32DA62027D9AB954226E
:1024200040F201249C619A600278FAB113221A6288
:1024300003F13802343370BCC1E904237047DD6214
:10244000027D002AEBD064224FF481749C619A6073
:10245000027842B131221A6203F13402383370BC7F
:10246000C1E90423704713221A62F5E731221A6288
:10247000DEE71148114A036C8A6043F001030364EC
:10248000056ECB680E4C45F001050566056E056AC4
:1024900045F001050562056A25F001050562006A3F
:1024A00070254FF0805084F81C53C4F880012060E0
:1024B000A2E700BF800C00200038024000BD0105EB
:1024C00000E100E00000000000000000000000004B
:1024D000144B596930B48D6884680022AC42426262
:1024E0000CD880F820201B689A689442FBD95A685F
:1024F00030BCC0E9003210605860704781F820207D
:102500001A4612689468A542FBD354684C600125B2
:102510000A602160516080F8205030BC5861FDF79E
:10252000DFBE00BF9C18002000000000000000007B
:10253000F8B5202383F3118848394418154BE3601C
:102540001969E06144F8242CA4F12406124D44F8E2
:10255000045C022001226661208484F82220002588
:1025600004F12C0280200D4FA06004F128062161A7
:1025700044F8205CE063C4E90D55A7612046CC60B7
:10258000C4E90A6222631C61FFF7A2FF85F3118888
:102590002046F8BD9C180020F102000810650008D4
:1025A000084B59691A6810B481F820001068186047
:1025B0000124436082F8204010BC5A611046FDF7A8
:1025C0008FBE00BF9C18002000000000000000002B
:1025D00070B52E4B044680685D6930B3AA68836885
:1025E000934207D290F820308260062B35D0072B1B
:1025F00020D09BB1234603E09968AA68914202D398
:102600001B689C42F8D15A680620C5E90032156063
:102610005D606C62BDE87040FFF7C2BFD0E9003278
:1026200013605A60FFF73CF9E4E7AB6BC4E902536F
:10263000AC6370BDD0E90031466A0B605960334627
:1026400002E099688A4202D81B689E42F9D15A6812
:10265000C0E9003210605860CCE7D0E90031466A2A
:102660000B605960334602E099688A4202D81B68C1
:102670009E42F9D15A68C0E9003210605860B068D3
:10268000AA6883689342ADD3B4E700BF9C180020CA
:1026900038B5104B5C69A36A606204F12805AB424F
:1026A00007D01A68A2621846FFF7FAF8A36AAB428D
:1026B000F7D194F822303BB994F821309B0703D12D
:1026C000D4E90332D3601A61BDE838400F20FFF728
:1026D00067BF00BF9C180020000000000000000041
:1026E000F0B54B1C87B048D03D4C3E4F6369059315
:1026F0002646022956F8183F05463B4838BF0221B6
:10270000B342426A049759D0676AD21B89182ED304
:1027100098681B689A68091A914204D91B68891A3B
:102720009A688A42FAD35A68029201AF01931760FD
:102730005F6003919A68511A4FF0FF3299602262EC
:102740002846FFF72DFF049B6BB1A369BB421BD04A
:10275000DDE901321360019BB3425A6003D09A68ED
:1027600003990A449A606369586A07B0F0BD9A6891
:102770009142D1D20F444763CEE7194CFFF710FFC7
:102780006369586A07B0F0BD019BA3610022B342A0
:102790005E60049220D09A68039D1348616A2A44BF
:1027A0009A60436A581A8242DDD9CB1A1344012B2E
:1027B00098BF821C0C4B0A445A63D4E78B1801AFB4
:1027C0006262CDE90166C4E90677039100224363A2
:1027D00002230261C360B3E7034BDA60C3E700BFC3
:1027E0009C18002031180008000C00400000000078
:1027F00061B1084A10B4526944680346C2E9003422
:102800000420226010BC5A60FFF76ABF4FF0FF300F
:10281000704700BF9C18002000000000000000006E
:10282000F8B504460F461646202383F3118803E0CB
:10283000FFF7DEFF002818DBA56831462046002D93
:10284000F6D06269A368511C013B6161A3601770F7
:10285000D4E904329A4224BFE3686361E36903B1B7
:102860009847002080F31188F8BD85F31188F8BDE2
:102870003030FFF7D5BF00BF0000000000000000AF
:1028800030304FF0FF32FFF7CBBF00BF0000000039
:1028900070B5202305460E4683F3118803E0FFF749
:1028A000A7FF00281ADBAC6831462846002CF6D07A
:1028B000A969AB6828694A1C013B8242AB60AA61E6
:1028C00028BFEB680C7828BFAB61EB690BB12846D9
:1028D0009847002383F31188204670BD84F3118844
:1028E00070BD00BF000000000000000000000000FC
:1028F0000C30FFF7CDBF00BF00000000000000005B
:102900000C304FF0FF31FFF7C3BF00BF00000000E5
:1029100038B504460D4605E0237A83B9FFF768FF12
:1029200000280BDBE36829462046002BF4D02369FE
:10293000E1691A1D0B44C4E90A23002038BD6FF079
:10294000010038BD00000000000000000000000091
:1029500070B520230D46044683F31188866AFEB1C4
:102960003570D4E90A3201339342A36214D3E26989
:102970002369A169043A1A60E069E26803448B4262
:10298000236124BF636A2361013A236BE260002262
:10299000A2620BB120469847002080F3118870BDD9
:1029A0001146FFF7B5FF08B9A66AD9E786F3118883
:1029B00070BD00BF0000000000000000000000002B
:1029C0004430FFF7C5BF00BF00000000000000005A
:1029D00044304FF0FF32FFF7BBBF00BF00000000E4
:1029E00038B504460D4605E0237A83B9FFF700FFAA
:1029F00000280BDBE36829462046002BF4D06369EE
:102A00001A6804331A44C4E90A32002038BD6FF052
:102A1000010038BD000000000000000000000000C0
:102A200070B52023044683F31188856AE5B115F853
:102A3000016BE26AA562954211D3D4E9061063697D
:102A4000E26803448B42636124BF636A6361013AB5
:102A5000236BE2600022A2620BB12046984700235C
:102A600083F31188304670BDFFF7BAFF064608B9F8
:102A7000A56ADCE785F31188F4E700BF00000000D9
:102A80000C30FFF7CDBF00BF0000000000000000C9
:102A90000C304FF0FF31FFF7C3BF00BF0000000054
:102AA00008B50146202383F311880820FFF718FE9C
:102AB000002383F3118808BD00000000000000001F
:102AC00010B4054C054B0648002121604FF400521C
:102AD00010BC196003F0C8B9BC3C0020C03C002009
:102AE000BC1C0020000000000000000000000000EE
:102AF0002DE9F843536900EB81070C46FA600FFAA1
:102B000081F823B10021196059609960D9609369F7
:102B100023B100221A605A609A60DA60FB68456D42
:102B20001E68D3F818C006F00306721E022A98BF6A
:102B3000B60405EB44124FF0000198BF06F1805631
:102B4000C2F8101B8CBF454E06F500466101BCF172
:102B5000000F4BD0B3F812C004F1580252014CEAF6
:102B6000060C45F802C004F1100ED5F81CC801226D
:102B700002FA0EF242EA0C02C5F81C286A185969DA
:102B80004FF0000CC2F810C9002944D0998B1A8A62
:102B900001294FEA9203C26D88BF4B4304F13F0104
:102BA00003EB020C05EB810142EA0343A20142F070
:102BB0002002C0F85CC04B602A612B699A06FCD4E5
:102BC0001220FEF7DDFEFB681B8A04F1480243EA8F
:102BD000845352011E43AE500121D5F81C3801FA2E
:102BE00004F41C43C5F81C48BDE8F88305EB481203
:102BF00004F11009D2F800EB2EF4004EC2F800EBFD
:102C0000D5F81C284FF0010C0CFA09FC22EA0C0242
:102C1000C5F81C28B2E704F13F0205EB8202A301CC
:102C20000F49516043F020032B612B699B06FCD4B4
:102C300005EB48181220FEF7A3FED8F8003923F45C
:102C40000043C8F80039D5F81C38012101FA04F412
:102C500023EA0404C5F81C48BDE8F883008000108E
:102C6000000400020000000000000000000000005E
:102C700030B583B005290FD8DFE801F0100E03103E
:102C80001029202383F311880378042B2FD0032BE2
:102C900059D0002383F3118803B030BD202383F380
:102CA00011882A4C237D1BB194F84C30002BF0D1B5
:102CB00002212748FEF734FE012526482575FEF738
:102CC00007FE254884F84C50FEF702FEE1E720237A
:102CD00083F311881D4C0121201DFEF721FE0023E6
:102CE000237584F84C3083F3118803B030BD174C42
:102CF0001A4A01900121FFF7FBFE02210198184AB0
:102D0000FFF7F6FE0025236B236204F10C00E3615C
:102D1000C4E90D55A561FEF7DBFDD4E9192304F1E3
:102D20004400C4E915332265C4E91B552575FEF737
:102D3000CFFD201D012184F84C50FEF7F1FD204607
:102D4000FFF7FEF9A5E7FFF7ABF9A2E7AC13002008
:102D5000B0130020B8130020F0130020446A0008CC
:102D6000686A000800000000000000000000000089
:102D70002DE9F041D0E90246B4420746884653D0D7
:102D8000D0E900C0234600211CF8035001352B4434
:102D90009842D8BF1B1AB34201F10101F4D1012AB4
:102DA0003D693CD0A94253DBB44254D04B1E9D42F6
:102DB00054D0D7E900EC002001E09D4217D01EF866
:102DC000043001331C44A44500F10100D8BFA4EB3A
:102DD0000C04C343B4420B44EFD11EF806405CB967
:102DE000012A35D101353D612046BDE8F0812646F6
:102DF0001EF80640002CF3D0013540223D61002131
:102E0000404603F031F87B68A2199A4210DA39681B
:102E10000136314440462246FDF778FAE4E7002DBA
:102E200004DD023D3D61BDE70021B8E70024DBE79A
:102E30009B1B39685D1E013631442A464046FDF72A
:102E400065FA396808EB0500621BFDF75FFACBE70E
:102E50004FF0FF34C8E7D7F800E0BEE7D7F800E04E
:102E60002646BAE700000000000000000000000055
:102E700070B590F83430044613B1002380F8343034
:102E800004EB81016268CB681B6A19685B68A36404
:102E9000616493686BB32046984750B3E36B94F832
:102EA000440094F84B1094F84A2042EA01229A42D6
:102EB0003CBFE2631346020600F1DF80002B00F006
:102EC0008F80152384F83430202383F31188E3683E
:102ED00062899B69D4E90E6142F00102002562819A
:102EE000204683E862002946FEF70AFF85F3118831
:102EF00070BD94F8440010F060061CD194F8452091
:102F000000F07F0343EA022340F20232934200F0D2
:102F1000138144D8B3F5807F00F0258122D9B3F521
:102F2000817F00F02F81B3F5407F04D194F84630C3
:102F3000012B00F0D280626DD2F80039616843F451
:102F40000013C2F80039D2F8003B0D6843F40013B7
:102F5000C2F8003B15B106212046A847062384F895
:102F6000343070BD012B60D0022B50D194F9481041
:102F700094F84820002902F00F01B4BF48315831BD
:102F8000626D490151580D04D6D589024CBF9C4A47
:102F90009C4AA26302210022C4E90F1281E7B3F523
:102FA000006F00F0C28047D9B3F5106F39D1237894
:102FB000042B00F09C8094F846304BB1626884F892
:102FC0004F3004212170136813B102212046984725
:102FD0000023C4E90E3394F844002364030665D447
:102FE0000B2384F83430202383F31188E36822898B
:102FF0005B69002542F0010222812046C3E90055A9
:103000009D602946FEF7E4FD85F3118870BD002B15
:1030100091D1022204F14C012364C4E90E1213463B
:103020003FE740F60242934285D1774BA3630022EB
:103030000223C4E90F3234E7B3F5A06F6BD0A3F5D8
:10304000C063012B3FF677AF94F84900616894F8AC
:1030500048304D6894F8462094F8471043EA00231E
:103060002046A84700283FF466AFD0E9003294F824
:1030700044002664C4E90E2313E7BBB1092384F896
:103080003430202383F31188E36822895B69D4E913
:103090000E6142F0010200252281204683E8620091
:1030A0002946FEF795FD85F3118870BD142384F839
:1030B0003430202383F31188E36862899B690025FB
:1030C00042F0010262812046C3E900559D60294615
:1030D000FEF716FE85F3118870BDB4F84C30A66378
:1030E00043F00203C4E90F66A4F84C3076E72023CE
:1030F00083F311882046FEF7D3FF86F3118803215E
:10310000636884F84F6021701B68002B3FF453AF55
:10311000204698474FE7B4F84430B3F5A06F48D045
:103120000023C4E90E33236458E704F14F0201235E
:10313000C4E90E232664B4E694F84630002B7FF4ED
:10314000FAAE94F8483013F00F02E9D013F0800F74
:10315000636D03EB421344D1D3F8002B42F4001209
:10316000C3F8002BDCE794F84630012B7FF4E3AE84
:10317000B4F84C30A66323F00203C4E90F66A4F848
:103180004C302BE794F84630002B7FF4D4AE94F803
:10319000483013F00F02C3D013F0800F636D03EBC0
:1031A000421325D1D3F8002B22F40012C3F8002BD0
:1031B000B6E794F84610626D84F84E10D2F80038E5
:1031C000656823F4FE632D6843EA0113C2F80038F2
:1031D00025B120460121A84794F844000323237019
:1031E0009EE7D3F8002942F40012C3F8002997E7BC
:1031F000D3F8002922F40012C3F8002990E700BF99
:10320000986A0008CC690008AC6C00080000000057
:103210002DE9F04F85B0CDE90232C7694FF02009A2
:1032200089F31188A2B3DDF80CB004460E464FF0C6
:10323000000AA2689345D4E904208CBFA5685D46C6
:10324000A2EB0008A84544D829D2A5EB08034246C2
:1032500031460193FDF75AF806EB0801DDF80480CA
:10326000E0684246FDF752F8A268E1684346CB1891
:10327000521B6361A2600FB12046B8478AF31188E0
:10328000ABEB050B2E4489F31188BBF1000FD0D1B5
:103290000398002383F3118805B0BDE8F08F2A4618
:1032A0003146FDF733F8E2686261A268521BA26002
:1032B000002DE0D102992046FFF79AFA0028B8D0F5
:1032C000039BA3EB0B00002383F3118805B0BDE83B
:1032D000F08F2A463146FDF719F862692A44626187
:1032E000E3E700BF00000000000000000000000055
:1032F0003030FFF78DBF00BF00000000000000006D
:1033000030304FF0FF33FFF783BF00BF00000000F5
:103310002DE9F04F85B0CDE90232C7694FF02009A1
:1033200089F31188002A34D0DDF80CB004460E462B
:103330004FF0000AA268A169934522698CBFA56875
:103340005D46A2EB0108A84544D829D2A5EB0803A5
:10335000424630460193FCF7D9FF06EB0800DDF842
:103360000480E1684246FCF7D1FFA268E168434669
:10337000CB18521BA361A2600FB12046B8478AF355
:103380001188ABEB050B2E4489F31188BBF1000FBC
:10339000D0D10398002383F3118805B0BDE8F08FE6
:1033A0002A463046FCF7B2FFE268A261A268521BCF
:1033B000A260002DE0D102992046FFF719FA0028FB
:1033C000B8D0039BA3EB0B00002383F3118805B057
:1033D000BDE8F08F2A463046FCF798FFA2692A44E0
:1033E000A261E3E700000000000000000000000010
:1033F0000C30FFF78DBF00BF000000000000000090
:103400000C304FF0FF33FFF783BF00BF0000000018
:103410002DE9F04F054683B00C46924699464FF091
:10342000200888F31188AB6A00263746002B41D06C
:10343000E96AAAEB060BCA1A934528BF9346BBF16B
:10344000400F40D92146184604F1400E0C684A68E6
:103450008B68D1F80CC0C0F80CC010317145046005
:103460004260836000F11000F0D1AB6A40330C463B
:103470004036AB62EA6A9A4213D8EA692B69A869B6
:10348000043A1A60E969EA68AF620B4483422B612F
:1034900024BF6B6A2B612B6B013AEA600BB12846A3
:1034A000984787F3118856451AD288F31188AB6A7A
:1034B000002BBDD1494628460193FFF729FA019B0D
:1034C00060B9AB6AB4E7184621465A46FCF71EFFBE
:1034D000AB6A5B445E445C44AB62CBE783F3118828
:1034E000304603B0BDE8F08F00000000000000008F
:1034F0004430FFF78DBF00BF000000000000000057
:1035000044304FF0FF33FFF783BF00BF00000000DF
:103510002DE9F04F83B005460F46934601934FF0D7
:10352000200989F31188AC6A0026B046002C3FD0F0
:10353000EB6AABEB06021B1B9A4228BF1A46402AD5
:10354000924621463BD904F1400E3B460C68486840
:103550008A68D1F80CC0C3F80CC0103171451C60EA
:1035600058609A6003F11003F0D1AB6A40334037E2
:103570004036AB62EA6A9A4211D8D5E906216B69F6
:10358000E868C5F828800B4493426B6124BF6B6ADE
:103590006B612B6B0138E8600BB12846984788F3C4
:1035A00011885E4516D289F31188AC6A002CBFD110
:1035B00001992846FFF714FA50B9AC6AB8E73846C3
:1035C000FCF7A4FEAB6A534456445744AB62D1E7C0
:1035D00084F31188304603B0BDE8F08F000000008E
:1035E0000C30FFF795BF00BF000000000000000096
:1035F0000C304FF0FF33FFF78BBF00BF000000001F
:1036000070B50D46B8B1044628601249204602F054
:10361000FFFC215C222904EB000612D00D49304644
:1036200002F0DAFC98B1421C00232A600370337860
:1036300023B1304670BD0C68002CE6D10026304620
:1036400070BD0136304602F05FFC0028EBD12860E7
:10365000EDE700BF18650008000000000000000052
:103660000EB42DE9F04F86B00FAB53F8044B029324
:10367000254615F8011B002900F03B8207469946B4
:103680004FF000080CE03B683846DB6808F10108A1
:103690002C469847254615F8011B002900F0BE80EE
:1036A0002529F0D163782D2B04BFA51C01202B7890
:1036B00018BF00202B2B03BF6B784FF0010E754411
:1036C0004FF0000E302B05BF1E466B7820260135CB
:1036D0002A2B40F0AC8059F8041B6B78AC1C2E2BC5
:1036E00000F03081002203F0DF054C2D00F0B280A5
:1036F000A3F1440CBCF1340F00F29881DFE81CF018
:103700005E0196019601960196015E019601960171
:103710009601960196019A0135009601960196014F
:103720009601940096019601350096019601960146
:1037300096019601960196019601960196014D011A
:103740005E0196019601960196015E019601960131
:103750009601960196019A013500960196012D0178
:10376000960194009601960135004FF0100E59F81D
:10377000045B0DF1170300E06346AA46B5FBFEF5B6
:103780000EFB15AB0BF13002392AC8BF0BF1370223
:10379000D2B2F24503F1FF3C03F8012CECD20DF15B
:1037A0000C0A0DF11705A5EB0C05D6460DF1170C0B
:1037B00001E013F8012B0EF8012B6345F9D1491BE9
:1037C000013D21EAE17B20B90029CBF1000B00F398
:1037D0004581002D0FDB6B1C534401941C463A6855
:1037E0001AF8011BD26838469047A245F7D108F174
:1037F0000108019CA844BBF1000F3FF44BAF5D46AC
:103800003B683146DB6838469847013DF8D125468C
:10381000D84415F8011B00297FF442AF404606B09A
:10382000BDE8F04F03B070474FF00A0E9FE76C1CE5
:10383000002BF3D00021A3F13002D2B2092A01EB10
:1038400081053FF64CAF14F8013B02EB4501002B1C
:10385000F1D1E3E714F8013B002BDFD0A3F14405DD
:10386000342D00F2E3800FF2080C5CF825F000BF65
:10387000BD3900082D3A00082D3A00082D3A0008FD
:103880002D3A0008BD3900082D3A00082D3A0008ED
:103890002D3A00082D3A00082D3A0008353A000864
:1038A0006B3700082D3A00082D3A00082D3A000821
:1038B0002D3A0008293800082D3A00082D3A000852
:1038C0006B3700082D3A00082D3A00082D3A000801
:1038D0002D3A00082D3A00082D3A00082D3A00082C
:1038E0002D3A00082D3A00082D3A00089B390008AF
:1038F000BD3900082D3A00082D3A00082D3A00087D
:103900002D3A0008BD3900082D3A00082D3A00086C
:103910002D3A00082D3A00082D3A0008353A0008E3
:103920006B3700082D3A00082D3A00085B39000873
:103930002D3A0008293800082D3A00082D3A0008D1
:103940006B3700082378002B3FF468AF2A2B74D123
:10395000637859F8042B0234C5E659F804ABBAF180
:10396000000F00F0BC809AF80030002A40F0AA80D6
:10397000002B00F0AB8047F6FE72554601E0D342C3
:1039800005D415F8016FAAEB0503002EF7D1A5EBBE
:103990000A05491B2026013D13E759F8043B8DF821
:1039A0000C300139202621EAE17B18B90029CBF13E
:1039B000000B72DC00250DF10C0A0CE759F804CB62
:1039C000BCF1000F5FDBBEF1000F00F08E802B23F7
:1039D0008DF80C300DF10D050DF10C0A05F10B03FE
:1039E00001931A46474BA3FB0CE3DB0803EB830B65
:1039F0009E46ACEB4B033033E346DBB2BBF1090F21
:103A000002F8013DF446EDDC9E46019BA3EB020C5F
:103A1000AC44734601E012F8013F05F8013B6545EF
:103A2000F9D1A5EB0A05491B013DCAE68DF80C301A
:103A30000139B8E74FF0080E99E601340022A3F1EE
:103A40003005EDB2092D02EB820C3FF64CAE14F8B6
:103A5000013B05EB4C02002BF1D1DFE6CDF804B0C1
:103A60009AF800102D2921D03B683146DB68384692
:103A700098471BF1010BF7D1019B002DA8EB030820
:103A8000BFF6A9AE06E62D23CCF1000C8DF80C3064
:103A90000DF10D050DF10C0AA0E79DF80C10CDF805
:103AA00004B02D290DF10C0A0546DDD1302EDBD1F5
:103AB0003A683846D26890470AF1010A08F10108CD
:103AC000013DD1E713B1013A7FF557AF21EAE17B20
:103AD00018B90029CBF1000B0DDC20268BE6DFF8AE
:103AE00028A0002A3FF447AFEDE70DF10C0A554638
:103AF00074E7884692E6CDF804B020264FF0FF35F3
:103B0000AEE700BFCDCCCCCC1C65000800000000A7
:103B10002DE98048384B394A5B69394F394E3A4D67
:103B2000DFF8F0B09A618DB04FF40059CA463B7887
:103B3000A5F81AA041F2883040F6C414042B18BF2F
:103B400004462046FEF7ACFF2046A5F81890FEF785
:103B5000A7FF33684FF6FE729342E8D8DFF8B8C08B
:103B60009846BCE80F006C460FC4BCE80F000FC4B9
:103B70009CE80F0084E80F00B8F1000F26D0BBFBD3
:103B8000F8F84046FCF78CFF19A3D3E900238146DF
:103B90008A46FCF7FFFFFDF70FFA952804461ED969
:103BA00013A3D3E9002348465146FDF71DF9FDF75D
:103BB00003FAB0F5613F15D86B460CA953F8042BF6
:103BC000904201D2944210D89942F7D10F4910483F
:103BD0004246FFF745FD4FF6FF733360A4E74FF011
:103BE0000008F3E74FF0FF38F0E79046EEE700BF3C
:103BF000713D0AD7A370F13F9C180020246500088E
:103C00003C18002038080020000802402C650008FD
:103C1000AC13002080969800E064000800000000CB
:103C2000F8B507460D46202383F31188184A002370
:103C3000526A83F311884FF47A73164C164E42F28F
:103C40000F700021E3FB020142F210720023FDF726
:103C5000D3F92368114A3060C3F3090102F83170C7
:103C600002EBC1025570506023B10133C3F3090365
:103C70002360F8BD0A490B48FFF7F2FC23680A4AA3
:103C8000316811600133C3F309032360F8BD00BF3D
:103C9000000C0040BC3C0020B41C0020BC1C0020D8
:103CA00038650008AC130020B01A002000000000A6
:103CB00000B50A4B0A4A5B690A4C9A6183B00DF160
:103CC00007014FF0FF3301222046FFF721FB9DF84B
:103CD00007000121FFF7A4FFF1E700BF9C180020B7
:103CE00080650008A40C0020000000000000000017
:103CF00000B50A4B0A4A5B690A4C9A6183B00DF120
:103D000007014FF0FF3301222046FFF701FB9DF82A
:103D100007000221FFF784FFF1E700BF9C18002095
:103D20008C650008000F002000000000000000006B
:103D3000BD4BBE4A5B69DFF840A3BD4E2DE980480C
:103D40009A61BC4BDFF834B31B69D90785B04AD4FC
:103D5000B94B1B78002B4AD0B84B1B78002B3AD1BB
:103D6000B74BDAF800501A689542C5F3090332D010
:103D70000BEBC30393F80180B8F1000F2BD0424640
:103D80002B461C460133C3F309010BEBC10110465E
:103D90004A788242F5D0002A00F01E81C5F1010365
:103DA0001C44A21C17D0631C00F01681A54B1F7881
:103DB000012F00F0D280022F6CD007B32C46B4F54F
:103DC000806F9E4A28BFC4F309044FF0000328BF48
:103DD000CAF8004013704FF4FA70FEF761FE954B7D
:103DE0001B69D907B4D5944A00231370B4E70321A3
:103DF0002020FFF715FF904A01231370ACE7B8F1BC
:103E0000030F08BF002200F00981B8F1010F0CBFB9
:103E1000022301238C49009442463046FFF720FCE0
:103E20003CB3DFF85C92DFF85C820AE05CF804CC1B
:103E3000AEEB0C0ECDF800E00137FFF711FCBC42F1
:103E400017D0DAF80020814B3A44C2F309020BEB99
:103E5000C20C1B68DCF804E01BF83220BEEB030345
:103E600041463046E2D149460137FFF7F9FBBC42F3
:103E7000E7D1DAF800301C44A542CAF800409ED2CF
:103E80000022C5F309030BEBC3030135A5425A70A9
:103E9000F7D194E76D4A0BEBC50311685A68B8F186
:103EA000030FA2EB010200F0B980B8F1010FCDE9D8
:103EB00000420CBF02230123654942463046FFF70A
:103EC000CFFB002CD5D010230027039598463D4604
:103ED00004E00135FFF7C4FBA84510D0AC425D49B2
:103EE0003046F6D9DAF800305B492B44C3F30903B6
:103EF00001351BF83320FFF7B3FBA845EED1574936
:103F0000574D3046FFF7ACFBB94603E009F1010914
:103F1000C84517D04C45F9D9DAF800304B44C3F303
:103F2000090329461BF83320A2F120035F2B3046FA
:103F300082BF2E222946304609F10109FFF790FB86
:103F4000C845E7D1474910373046FFF789FBBC42E7
:103F500008F11008BBD8039D8BE73C4A0BEBC50367
:103F600011685A68B8F1030FA2EB010256D0B8F1FC
:103F7000010FCDE900420CBF022301233449424620
:103F80003046FFF76DFBFCB1DFF8D880324F4FF0C1
:103F90000009DAF800304B44C3F3090319F00F0F9E
:103FA0001BF8332008D141463046B9F1000F03D049
:103FB0000392FFF755FB039A09F101093946304690
:103FC000FFF74EFB4C45E4D126493046FFF748FB4E
:103FD000DAF800301C444FE7202383F31188224A8B
:103FE0000023526A83F311884FF47A7342F20F7000
:103FF0000021E3FB020142F210720023FCF7FCFFF8
:104000001A4B1A681A4B1B88801A98427FF6E3AE47
:104010000B4BDAF800501C68641BC7E615493046A4
:10402000FFF71EFB25E700BF9C18002098650008DD
:10403000AC13002000000240641A0020651A002022
:10404000BC3C002000080020CC650008B01A00200D
:1040500010660008346600082C6600083866000800
:104060003C660008CC670008000C0040B41C00202F
:1040700002080020A4650008C03C0020BC1C0020F1
:10408000F8650008E065000800000000000000007E
:10409000002910B504460ADD1346002218681146AF
:1040A00001F0D6FE032811D80C4B187010BD0C4936
:1040B000FFF7D6FA094B0B491A782046FFF7D0FADA
:1040C00020460949BDE81040FFF7CABA0246074931
:1040D0002046BDE81040FFF7C3BA00BF000800202B
:1040E0004066000858660008706600088866000888
:1040F000002910B504461ADD13460022186811463F
:1041000001F0A6FE4FF6F573A0F10A01994207D817
:104110000E4B0F4918802046BDE81040FFF7A0BAAB
:1041200002460C492046BDE81040FFF799BA0A49FB
:10413000FFF796FA054B09491A882046FFF790FACF
:1041400020460749BDE81040FFF78ABA0208002060
:104150002467000804670008A4660008C866000811
:10416000E4660008000000000000000000000000FD
:10417000002938B504461FDD134600221146186891
:1041800001F066FE144BA0F59671994202460DD8D7
:10419000124B13481A60FDF7FBF81248FDF7F8F8C8
:1041A00020461149BDE83840FFF75ABA20460F496A
:1041B000BDE83840FFF754BA084B0D491D68FFF7BA
:1041C0004FFA0C492A462046FFF74AFA20460A4988
:1041D000BDE83840FFF744BAD4C001002C080020E5
:1041E000980C0020F40E0020A467000884670008E3
:1041F00038670008586700086C6700080000000076
:1042000010B50B4984B00446FFF72AFA0022114684
:1042100001A801F01DFE034601AA9BB205492046F4
:10422000FFF71EFA04490548FFF71AFA04B010BD5B
:10423000B8670008D0670008FC670008AC130020CE
:10424000012903D0034A0449FFF70ABA1268034957
:10425000FFF706BA04680008146800082068000820
:104260002DE9F04FBC4DD0F800A083686A69BB49C6
:10427000A7B0044601904068069000209161187034
:10428000D4E90223CDE90E00B54910905046CDE99E
:104290000C23FFF7E5F9B3495046FFF7E1F96B69E5
:1042A00093F8213013F0040340F0958002930DF150
:1042B0005809CDF800A0AC490098FFF7D1F9019B4F
:1042C00000251C682F46C846236801229B680DF113
:1042D000230120469847002846D09DF823101B292B
:1042E0002AD05FB15B293DD035B1412900F02A8148
:1042F000422900F00A8100252F46E5E708291DD054
:104300007F291BD00D2900F06881092977D00E295B
:1043100000F03F81102900F057811F29D4D90DF1F9
:1043200097039845D0D223682046DB6898479DF8CC
:10433000233008F8013BC7E70127C5E7C845C3D0CC
:1043400023680821DB682046984723682021DB6822
:104350002046984723680821DB68204608F1FF388B
:104360009847B1E73D46AFE74FF47A70FEF798FB08
:1043700009A94846FFF744F909A90546002011ACF0
:104380000026FFF73DF950B1042E31D044F8040B5C
:1043900009A900200136FFF733F90028F4D126AB34
:1043A00003EB860343F8540C75B170492846FCF7BB
:1043B0004BF8002840F0BD81002E00F072816B4A5E
:1043C0006B490098FFF74CF9634B5B6993F8213018
:1043D0005B077FF570AF202383F3118800216548C8
:1043E000FDF79EFA0020FEF753F927B0BDE8F08FE5
:1043F00061490098FFF734F900231593E4E70DF1C4
:104400009706B045BFF460AF584B88F8007093E84A
:1044100003000DF1280B0A908DF82C1058464946E0
:1044200001F068FF019BD3F810A05A680392584529
:104430000AF1040308BF9B460493504B08BFCAF817
:1044400000004946184618BFD34601F053FF4B4BB6
:10445000039A98425B4608BF43F8040BC2B1D2F8F6
:1044600000B0BBF1000F13D0039405955C461546D0
:104470009B462046494601F03DFF844208BF4BF869
:10448000044B55F8084F002CF3D1039C059D5B4667
:10449000029A1A60DAF800B0BBF1000F3FF414AFD3
:1044A000DAF80430A8EB09010391002B00F07081C9
:1044B0009BF800C0BCF1000F00F0B881059407958F
:1044C0006446039DDDF810C0C64600215A5CA24236
:1044D00008BF624605D13BB152F8043F585CA04288
:1044E000F9D0002B40F0F080B64505D28D42DCBFFC
:1044F0000EF8014BDAF800B001311BF80140002C36
:1045000000F03281DAF80430E0E7012249460CA8D5
:10451000FEF72EFC061E39D18DF85860102352226A
:1045200017492046FFF79CF816492046FFF798F8F0
:10453000002515494A462046FFF792F809EB060880
:104540002F46C1E6002249460CA8FEF711FC061EC4
:104550007FF7D1AEE2E700BF9C1800202868000872
:10456000CC670008306800084468000890680008BC
:1045700014680008C43C0020786800086C680008D3
:10458000586800086468000868680008FFF6B3AE61
:10459000C4E7012249460CA8FEF7EAFB061E78D1C3
:1045A0008DF8587010235222A3492046FFF758F87F
:1045B000A2492046FFF754F8A1494A46204609EB94
:1045C0000608FFF74DF87FE63A4649460CA8FEF785
:1045D000CFFB061E7FF778AEE4E720469949FFF748
:1045E0003FF80D9DA8EB09046B1E9C424DDA631E3B
:1045F00009EB030219F8031020290AD1002C03DC6F
:1046000043E0002B41D0013B12F8011D20291C463C
:10461000F7D0002C39DD0F9E0C980E9BF21A991BD7
:1046200001329E42A5EB020201F1FF3109DBA242F9
:1046300009DCC25C134401339D42D8BF5B1B0E935F
:10464000ECE7A142F5DDAD1B013D0136A54230444A
:1046500022DC2A464946FBF759FE0C98621B09EBFF
:104660000501FBF753FE0F9B0C9AD4540F9A0D9B38
:10467000013414449C420F94A8BFE41A0C9B029A84
:10468000A8BF0F941A5500231093029B88F800309E
:104690006EE6FFF619AE85E722464946FBF736FE81
:1046A000E1E7009C68492046FEF7DAFF674A68495F
:1046B0002046FEF7D5FF069B002B40F0988061490D
:1046C0000098FEF7CDFF7FE6059C079D09EB010BE7
:1046D000029B8BF8003000293FF4F6AD019ADAF81E
:1046E00004301668002B4CD056493046FEF7B8FF10
:1046F000DAF8002072B1DFF86481DDF810A001E083
:104700000AF1040A41463046FEF7AAFFDAF8002013
:10471000002AF5D14B493046FEF7A2FF4D493046FD
:10472000FEF79EFF46494A463046FEF799FFD846B7
:10473000CAE546482946FBF787FE002851D0069C6B
:10474000002C68D0206820B965E054F8080F0028D4
:1047500061D02946FBF778FE0028F6D163680098FF
:10476000314611AA98472FE6A44609F801C0019ADC
:10477000DAF80430079D059C166809EB010B002B45
:10478000B2D142462E493046FEF76AFFD8469BE535
:104790005846CDF814B0FBF7D3FF09EB000BD84512
:1047A0008646014645D2039B059AA3EB080C434677
:1047B00003E0B3428CD0DAF8002003EB0C00125C6B
:1047C00003F8012B5B45F4D1B34581D20EF1010E04
:1047D00020238BF80030029B09F80E3009EB0E0BFA
:1047E0007CE70098314611AAFFF72AFDECE5069C0C
:1047F0002268002A3FF463AF154D009E29463046DB
:10480000FEF72EFF54F8082F002AF7D10D49009823
:10481000FEF726FFD8E5009C09492A462046FEF708
:104820001FFF0D492046FEF71BFFCDE58DF858C050
:104830004AE5C346CAE700BF586800086468000834
:1048400068680008CC670008986800086C68000871
:10485000A868000844680008AC680008746800088C
:10486000EFF30983203383F30988002383F311884E
:10487000704700BF000000000000000000000000C2
:10488000202383F31188FDF703BF00BF0000000061
:104890000D4A10685169036830B401245A6000253C
:1048A00080F820408C681360506181F8205000E04F
:1048B0001B689A689442FBD35A6830BCC1E9003245
:1048C00011605960FBF70CBD9C180020000000002F
:1048D000044B1A685B6992689B689A4200D87047DB
:1048E000FFF7D6BF9C180020000000000000000069
:1048F0000029F8B5044640F3AD8013460022114666
:10490000186801F0A5FAC2B2012A00F2FD80202346
:10491000002A44D083F311887E4B1A78022A00F0D3
:10492000C380002201255A601D7082F31188202661
:1049300086F31188D9680A60C868022720F0FF0052
:104940001F70C86082F31188734840F282320421DC
:10495000FDF766FA704840F282320821FDF760FAEE
:104960006D4840F282324FF40071FDF759FA6A48FF
:1049700040F282324FF48061FDF752FA2946324606
:104980006548FDF74DFA6548FCF702FD6448FCF701
:10499000FFFC20466349BDE8F840FEF761BE83F3A3
:1049A00011885E4D297A022900F0978001235E4824
:1049B0002B72FDF735FCAB695C480026C5E908336E
:1049C0006E61FCF785FFFFF783FF86F311882023D4
:1049D00083F31188524D2B7A022B4DD05448012776
:1049E0002F72FDF71DFCAB6952480026C5E908335C
:1049F0006E61FCF76DFFFFF76BFF86F31188464889
:104A000039468222FDF70CFA202787F31188414DA1
:104A1000494B6B60FDF7E4FC02232B7086F3118891
:104A200087F31188EB685A6942F001025A61052147
:104A300003221E6119602A7086F3118887F311889A
:104A4000FCF786FC86F311883C492046BDE8F84017
:104A5000FEF706BE3A49FEF703FE3A492046FEF746
:104A6000FFFD394920460122FEF7FAFD204637496D
:104A7000BDE8F840FEF7F4BDD5F85422344BD660BB
:104A800016615661196C334A21F400311964196EAC
:104A900021F40031196640211B6EC2F88410C2F85F
:104AA000841182F8266399E7DD682A48284A0021A4
:104AB0002960E96029614FF08055C0F88050C0F846
:104AC000805180F81C13116C21F001011164116EEA
:104AD00021F001011166126E23E7D5F854021C493A
:104AE000C260026142614E6C1A4826F010064E64A4
:104AF0004E6E26F010064E66496EC0F88430C0F83F
:104B0000843180F8252351E720461349BDE8F84059
:104B1000FEF7A6BD800C002000000240980C00208B
:104B2000F40E002058690008C80C0020A40C0020D6
:104B3000240F0020000F00200408002078690008DE
:104B4000B4680008D46800080869000824690008EF
:104B50000038024000E100E0386900080000000071
:104B600038B5164B01465D69202383F31188006830
:104B7000CB68AB6388421BD0EC6B4BB11A68934295
:104B800003D09268944238BF1446DB68002BF5D1FD
:104B9000826B0368AC600B605960C1E902028163FB
:104BA000FCF77EFEFFF794FE002383F3118838BDE7
:104BB00000238360002383F3118838BD9C180020F4
:104BC000BA4BBB481A6962F01F022DE980481A618E
:104BD0001A6902F01F021A614FF0FF341A695A690C
:104BE0005C61002259695A615969196A61F0805102
:104BF0001962196A01F080511962196A596A5C6276
:104C0000596A5A62596A196C41F080511964196ED7
:104C100041F080511966196E016841F4807101609C
:104C2000196F01F44071B1F5007F91B003D04FF4DA
:104C3000803119671A679E4FDFF8E8827A689D4DC8
:104C40009D499E489E4CDFF8E0926023402622F466
:104C500000727A604FF0800A88F806334FF4807251
:104C6000C8F88061C8F800604FF4007688F8073310
:104C7000C8F880A1C8F800A088F80833C8F88021D7
:104C8000C8F8002088F80933C8F88061C8F80060C7
:104C90004FF4806688F80A33C8F88061C8F800606D
:104CA0004FF4000688F81733C8F88061C8F8006030
:104CB00088F82833834BC8F884210027C8F80420DB
:104CC0004FF0010BEB604FF08043CB6081F800B0F8
:104CD0004F607D4985F800B06F60FCF709FB7B4BA6
:104CE000C0F854327A497B4E7B4D2046FCF700FBDE
:104CF0007A4B7B49C4F854324846FCF7F9FA6B4BBF
:104D000086F800B01A6CF76142F008021A641A6E55
:104D10007449B76242F008021A661B6E8A68724CC8
:104D2000376242F00802C6E90177F76277623763BB
:104D30008A606E4A64604FF0FF3C42F2CF0191629C
:104D4000C2F82CC097615763D7605760C2F814B09F
:104D5000C2F800B002F5843288F832A3C9F85422B0
:104D6000634AB2654FF0A04272654FF48022614BF6
:104D7000C8F88421C8F804205F4A2460C4E902749A
:104D80002A6005F10C02C5E9032203F110021A6141
:104D900014229A6103F124025A6203F128029A62F2
:104DA0001C221A6303F13C02DA6303F140021A6425
:104DB00003F144025A6404F1180250481862C4E92D
:104DC000062204229863C3E900334D494D489F6091
:104DD0005F61DF62DA615A634B4B2461C1E9000312
:104DE00000200021C4E908C7C5E9017727676F6182
:104DF000CDF828C0CDE90E01CDE90B7790460D978F
:104E00000AA8FCF7CDFC0AA8FCF7A2FCB8F101083F
:104E1000F6D13E4B21690A9A22678020012703F1CF
:104E20002C02DFF808E184F84D8003F1280CC4E976
:104E30001888C4E90E416063A06684F84E70C4F817
:104E400044E04FF02009CB60C4E90433C4E915C243
:104E500084F84C70C4F84880E26589F3118862B622
:104E60002B4B2C4AD9684FF6FF00014000F16040FF
:104E70000A43A0F60F30DA60C268274942F0807218
:104E8000C2600A6810203A430A60D87783F82290FB
:104E900088F3118862B689F311882048FCF788FCF2
:104EA000FDF716FB88F311881D4841E000380240E9
:104EB00000700040680C0020800C0020980C00203E
:104EC000F40E002000000140A11500080010014070
:104ED000B11500083C180020481A0020004400408A
:104EE000C1150008002004E09C180020000C0040C0
:104EF0008C6A0008101900206115000821170008AD
:104F0000301A0020E844002000000120C8180020CA
:104F100000ED00E00003FA05001000E09C6A0008C4
:104F20000008024000E100E050110020D0690008B4
:104F3000DFF89CA33A464FF40051FCF771FF3A4664
:104F4000C9484FF48041FCF76BFF3A46C6484FF41E
:104F50000041FCF765FF5146C44B41F8043B0AF29F
:104F60008C43C348C34ACAF85C300AF17C03CAE9DF
:104F700007338AF808708AF814708AF84C70CAF8F7
:104F80003C000AF10C07CAF87420CAF804100AF5AC
:104F900021724FF482710AF14400CAF830300223C2
:104FA000CAF81880CAE90D88CAE91B88CAE90377DC
:104FB000CAE91522CAE91100CAF840A0CAF878A0C7
:104FC000CAF82420CAF86820CAF82810CAF8601065
:104FD000CAF82C30CAF85030CAF8643089F3118806
:104FE000A54AC6F820A0C6F82CA0C6F81CA08AF8CE
:104FF0000830CAF88C2488F31188726D936B23F4FF
:105000000023936343F69820FDF74AFD89F3118846
:1050100033789A4A7260012BC6E90388C6E905888D
:1050200000F0FA8102233370002787F31188726D34
:105030009348936B43F400239363082140F2823238
:10504000FCF7EEFE8E4840F282324FF48061FCF7AE
:10505000E7FE202201218A48FCF7E2FE8948FCF79E
:1050600097F98948FCF794F9202686F31188874838
:10507000FDF7D6F88648FDF7D3F8FFF729FC87F34C
:105080001188844A844B176039464FF40052834894
:105090001F6000F0E9FE824B1B6086F3118805A9B2
:1050A000186819606369089701264FF0FF32CDE94F
:1050B00006360590099287F311887A4A7A487B4E22
:1050C000DFF81092DFF810824FF4A471FDF730FA88
:1050D000774A78484FF43271FDF72AFA764A7748D2
:1050E0004FF43271FDF724FA754A76484FF4A471F3
:1050F000BB46FDF71DFADAF88C341B681B78042BCD
:1051000040F0A380BBF1000F29D06769202383F30F
:1051100011887B6BDA0740F19D806FF0010213402C
:105120007B63002787F311889BF820300F2BE2D197
:10513000202282F311889BF82230013B8BF8223029
:10514000DBF8203003F0FF130F2B00F0C78087F34C
:105150001188DAF88C341B681B78042B55D1202376
:1051600083F311883046FDF733FA002383F3118867
:105170006A68DAB1544800E01A46516802F10F0338
:1051800001F1010C23F0070302EBCC0CACEB030E96
:105190001F46083B63454FEAEE0E03D2BEF58C7FF7
:1051A00000F2B78013681046002BE5D13046FFF7B8
:1051B000D7FC2B68002B00F0C9800822114640F66E
:1051C000C80098470746002800F0C08040F6C80392
:1051D00040E9025307F6C80281230C923B4A0D9323
:1051E000CDE90A97CDF838800F92202383F31188F8
:1051F0000AA8FCF7DDFA012380F821308346FDF789
:1052000067F9002383F311887FE742F21070FDF7FE
:1052100047FCDAF88C341B681B78042B9FD042F2D1
:105220001070FDF73DFCDAF88C341B681B78042BFA
:1052300095D042F21070FDF733FCDAF88C341B681D
:105240001B78042B8BD04FF0000B42F21070FDF74F
:1052500027FC50E701237B620A20FDF7A1F97B6B55
:1052600003F00102D2435AE700080240846C0008B0
:10527000A121000851220008346B0008506B00087F
:1052800000000240F40E0020980C0020C80C002002
:10529000240F0020BC3C0020C03C0020BC1C00208F
:1052A000C43C0020113B0008A0430020541A0020F9
:1052B000B13C0008C83C0020F13C0008903F0020B1
:1052C000313D0008584200204C1A00203C6B000879
:1052D000AC1300209869000861420008DBE9031361
:1052E000D960DBF80C100B6187F311889BF8213033
:1052F00003F00303012B41D0022B7FF42AAFDBF82C
:105300004030DBF81C1082F311881A680A601960BB
:105310001DE793421DD902F10801591A40F21910F4
:10532000C9108645516009D0AEF58D711068C3F87B
:10533000D41807F6C801C3F8D008116040F6C802B7
:10534000C3E900523046FFF70BFC43E74FF0000B78
:10535000DBE640F21913994249D002F6D803ACEBD0
:105360000303DB101168C2F8D43802F50D63C2F8EC
:10537000D01802F1080703601346DFE7DBF81C10C2
:10538000029151E902030733DB0841F8043C031D95
:1053900003930C30A1F1080B82F311880190FDF703
:1053A00017F987F31188039BDDE901011A4693423F
:1053B000176801D0934502D91FB1BB4501D33A46C6
:1053C000F5E751F8043C41F8087CC2F800B05F1CD6
:1053D00051F8083C0BEBC70C634515D057687B1C94
:1053E00002EBC3039B4508D0FFF7BAFBB1E61746B3
:1053F000134657F8082B0260A0E751E90213013366
:105400001F4411605760EFE7D3E9003C674441F85F
:10541000083C41F8047CE1E73E4B776D596B3E4A0E
:1054200041F080015963596D41F080015965596D12
:10543000596941F080015961596921F08001596130
:105440005B693649E02382F843330823C2F8883188
:105450009360334BF960C022C7F800384FF434131F
:10546000C7F8008E3A60BB633B69002BFCDA01236E
:105470003B610C20FCF784FA3B6913F00108FBD177
:105480001220FCF77DFA3B69002BFCDAD6E91513F4
:10549000D3F808E00023BB604FF0FF3C00E0C846B3
:1054A00001EB48121346D2F80009002808F101095F
:1054B00005DAD2F8000940F08040C2F80009D2F8BD
:1054C000000B002805DAD2F8000B40F08040C2F84B
:1054D000000BC645C3F808C9C3F808CBDFD1736811
:1054E000DA684FF00113C1F81C380023C7F81038F0
:1054F000C7F81438C7F81C384AB10A4BBB614FF0E3
:10550000FF337B61BB6843F00103BB608AE5064B58
:10551000BB61F4E70038024000E100E040140040C5
:1055200003002002083C30C0003C30C000000000F6
:10553000684BDFF8E8C11A696748684942F01F0202
:10554000F0B41A611A69664D664F674C22F01F026B
:105550001A611A691A6B42F01F021A631A6D42F03F
:105560001F021A654FF480721E6D6A604FF6FF7657
:105570006FF05002AA60C5F80CC04FF42A226E6189
:105580002F625A4F6A6200222F604FF0FF35584F4A
:1055900042608560C76080274661026242620760A0
:1055A000544F4A608D60CF604FF080674E610A6251
:1055B0004A620F6001F5A0514FF055376260A56057
:1055C000E7606661226262622260C0F8042CA4F582
:1055D000CE34C0F8085CC0F80C7CC0F8146CC0F87D
:1055E000202CC0F8242CC0F8002C43484A608D6061
:1055F000C8604FF080554FF400404E610A624A6225
:105600000A601D6420601A6842F001021A601A687C
:105610009607FCD599682F4A21F003019960936899
:1056200013F00C03FBD110682A4900F0F900106058
:105630009360136843F4803313600B689D03FCD5BB
:105640004A6F244B42F001024A675A6F9407FCD517
:105650002A4A5A601A682A4942F080721A604B68D6
:105660005804FCD51B4B1A689201FCD5254999605A
:10567000254A0321C3F88C101268244B9A421ED08D
:10568000234B40F202721A60214A136803F00F03A1
:10569000022BFAD10F4B9A6842F002029A609A6884
:1056A00002F00C02082AFAD15A6C42F480425A6481
:1056B0005A6E42F480425A66F0BC5B6E7047154ADF
:1056C000154B12689A42DBD1114B4FF481721A606C
:1056D000DAE700BF00380240000402400008024040
:1056E0000000024000775055000C0240A0A9802A1B
:1056F0005554555555555501505555551954410753
:105700000070004000108838002004E01164002080
:10571000003C024000ED00E041C20F41050015646D
:1057200008B50348FCF744F9BDE80840FBF7D0BFD3
:1057300050110020000000000000000000000000E8
:1057400008B50348FCF734F9BDE80840FBF7C0BFD3
:10575000F40E002000000000000000000000000027
:1057600008B50348FCF724F9BDE80840FBF7B0BFD3
:10577000980C002000000000000000000000000065
:1057800008B50348FCF7DCF9BDE80840FBF7A0BF0B
:10579000800C00200000000000000000000000005D
:1057A00008B50348FCF7CCF9BDE80840FBF790BF0B
:1057B000680C002000000000000000000000000055
:1057C000FFF7EEBF00000000000000000000000036
:1057D0002DE9F843284C2369E2681340DAB2D2433A
:1057E0009B07226103D4BDE8F843FBF771BF202378
:1057F00083F31188214D676AAB696A6A9968BE1A9A
:10580000B14205F1180998BF4FF0000820D82027B1
:1058100000E06A6A18680A4448456A62A6EB010615
:10582000DA68C0F80490A861C3F80C8008BFC4F817
:105830000C8088F311881869904787F31188AB6949
:1058400099688E42E5D2676A6A6ABE1A8E42DED2D3
:105850004B450AD099686F62C91B0A4406499A6091
:10586000022A2CBFBF1802374F63002383F311882D
:10587000BDE8F843FBF72CBF000C00409C1800204B
:105880002DE9F84F9F4C666D7569B3691D4015F49D
:105890008058756140F03881002DC0F2C280290522
:1058A00038D5D4E915730021D3F808904FF0FF3CA8
:1058B00000E0714607EB41121346D2F800090028B8
:1058C00001F1010E05DAD2F8000940F08040C2F87B
:1058D0000009D2F8000B002805DAD2F8000B40F0DE
:1058E0008040C2F8000B8945C3F808C9C3F808CB4B
:1058F000DFD1227884F850206368052222701B686B
:105900004FF00112C7F81C2813B17E4804219847B4
:105910000023A360AA040CD5D6F8083813F0060FAC
:10592000F36823F470530CBF43F4105343F4A053B3
:10593000F3602B0729D4EF022FD4A80200F1B68020
:10594000EB0600F188802903D6F818480BD5E2034E
:1059500000F19481A30300F18781670300F18A813C
:10596000260300F149816D030BD5E00700F1928118
:10597000A10700F18B81620700F18481230700F108
:105980004281BDE8F84FFBF7A3BE6368DB68002BDC
:10599000D1D05C489847EF02CFD50021D4F854B05D
:1059A000DFF860A10F464FF0010906E0A36D013753
:1059B0009B68FFB29F423946BFD80BEB4713D3F821
:1059C000002902F44022B2F5802FEFD1D3F800294C
:1059D000002AEBDAD3F8002942F09042C3F80029FC
:1059E000D3F80029002AFBDB626D890141F0200118
:1059F000116113699906FCD41220FBF7C1FF04EB77
:105A000087032189DA6809FA07F3926821EA030318
:105A1000238112B13946504690473846FBF758FD6E
:105A2000C4E7D6F8003E980740F0DF8094F8503085
:105A300062682370D6F80438126823F00103C6F8B0
:105A40000438002A3FF42BAF05212E489047290542
:105A50007FF560AF25E7616D0B6A03F4F010B0F5D8
:105A6000802FC3F30A1203F00F0300F0D380B0F5C8
:105A7000402F7FF468AF04EB8303DB68186A002AC9
:105A80003FF461AF01F5805400239F0708BFD4F8AD
:105A90000080072B014603F1010304D801F8018BB4
:105AA0004FEA182808469A42EFD14CE7D4F85490B0
:105AB000DFF850B000274FF0010A06E0A36D013770
:105AC0009B68FFB29F423FF63BAF09EB4712D2F80B
:105AD000003B03F44023B3F5802FEFD1D2F8003B15
:105AE000002B04EB87000AFA07F1E7DAC268638942
:105AF000D26823EA0103584639466381002ADDD083
